:020000040800F2
:10000000D04E0020D500000805840008DF0000085D
:1000100000000000000000000000000000000000E0
:10002000000000000000000000000000E1000008E7
:100030000000000000000000E3000008D5EC00080C
:10004000E7000008E700000835AF0008E7000008F7
:10005000E7000008F32C0008072D00081B2D0008FE
:10006000E7000008452B0008552B0008652B000809
:10007000E7000008E7000008E700000895EE000828
:10008000E7000008E7000008E700000800000000A3
:10009000E7000008E7000008E7000008E7000008A4
:1000A000E7000008E7000008E700000835FE000848
:1000B00045FE0008E7000008E7000008E700000828
:1000C0000348854600F0F8FD00480047A973010881
:1000D000D04E00200448804704480047FEE7FEE772
:1000E000FEE7FEE7FEE7FEE72DEE0008C100000890
:1000F00030B50B46014600202022012409E00D46C0
:10010000D5409D4205D31D469540491B2546954047
:1001100040191546521E002DF1DC30BD70B500248B
:100120002546002801DA01244042002901DA012590
:100130004942FFF7DDFFAC4200D04042002C00D026
:10014000494270BDF0B51FB40646002082B0054696
:100150004024019100901BE0019922460F46304651
:1001600000F00CFC049A059B801A994110D31046AC
:100170001946224600F0F2FB361A8F4101972246BB
:1001800001200021009F00F0E9FB38184D4100904C
:100190002046641E0028DFDC019B00982946324679
:1001A00007B0F0BD03460B439B0703D009E008C925
:1001B000121F08C0042AFAD203E00B780370401C17
:1001C000491C521EF9D27047D2B201E00270401CA5
:1001D000491EFBD270470022F6E710B513460A46C7
:1001E00004461946FFF7F0FF204610BD421E537823
:1001F000521C002BFBD10B781370491C521C002B96
:10020000F9D1704730B505462A460B4610781C7860
:10021000521C5B1C002801D0A042F7D0002C03D058
:10022000002802D06D1CEFE7284630BD421C017843
:10023000401C0029FBD1801A704703460A780270DF
:10024000401C491C002AF9D11846704730B50546B4
:100250000020034600E05B1C934205D2EC5CC85CC6
:10026000201A01D1002CF6D130BD000070B5104D20
:10027000002800D12868002414E00A4602E09E42CB
:1002800003D0521C1378002BF9D1DAB2224307D0E5
:10029000002B06D0002C04D000210170401C04E08B
:1002A0000446401C0678002EE7D12860204670BD29
:1002B000E4080020F7B5009C0F4600262578641C52
:1002C000002D05D000F07EFB0068405DC007F5D131
:1002D0002B2D02D02D2D18D0641E39462046029AAF
:1002E00000F074FB002F04D03968A14201D10099BD
:1002F00039607105022400290BDA4042002803DD31
:1003000010F0AAF90460A007FEBD01208002064398
:10031000E3E70028F8DA10F09FF904600048FEBD1A
:10032000FFFFFF7FF7B582B00F460026029C10F05A
:1003300093F90090006801902578641C002D05D089
:1003400000F040FB0068405DC007F5D12B2D02D0C6
:100350002D2D1CD0641E00980021016039462046D6
:10036000049A00F033FB0146002F04D03868A04205
:1003700001D1029838600098006802280BD00098DC
:10038000019A0260700506D5484205B0F0BD012013
:1003900080020643DFE70846F7E770B5064610F02F
:1003A0005BF9046805460A2200213046FFF782FF08
:1003B0002C6070BD70B5064610F04EF90468054615
:1003C0000A220021304600F054FB2C6070BDF8B5C5
:1003D00002464A40D40F42004B0052085B089A4242
:1003E00002D20246084611464A0023D0C30D4A00F5
:1003F000DDB2120EAD1A202D35DA49020126490A66
:10040000F6058A19002C00D0524220214F1B1146BC
:10041000B9402A411018C20D9A4221D0002C17D0A1
:10042000012D08DCDA05801AD20F8019D207DBB261
:1004300000F06CFBF8BDDA05801A012340001B06B2
:10044000C01880185A428018CA0F1043490007E0AC
:100450004908C2071143DA05801A8019400880183C
:1004600000F04CFBF8BD61000122511A001BF7E7B8
:100470000122D2075140AAE70122D2075040A6E745
:10048000F0B507460846584087B0C00F04904800B2
:100490000E46590040084908BC1A884105D2384622
:1004A00031461E4617460B46024658004008104388
:1004B0004CD0300D039040055900400D490D05907A
:1004C000401A0290402872DA18030121000B090536
:1004D0000843019004980092002805D001995242E7
:1004E0000020884100920190029840210A1A019947
:1004F000009800F033FA05460C466B4607CB00F037
:100500004EFAC0197141039A0E0D0023D7175640B9
:100510001A467A40164344D0049A002A2DD0029AF3
:10052000012A039A15DC1205C01A914101263605ED
:10053000001C7141D20F059ED207009301920296D2
:100540002A46234600F028FB07B0F0BD3846314666
:10055000FAE71605224A0F46B218C01AB741012120
:100560000905001C4F4100187F41114618187941B8
:10057000E20F10436D19644113E0E2076D08154363
:100580006408C2071443039A01261205C01A914158
:100590003605001C7141CE07400830434908C01899
:1005A00051412A46234600F0EAFACDE7FFE70498D6
:1005B00001224000C117121A00238B4104983146D2
:1005C000C417381AA141EEE730B40124E4076340B0
:1005D00030BC55E730B40124E407614030BC4FE73C
:1005E0000000E0FFF0B51FB488B00B990998002413
:1005F00048400999C00F490049080991C0070B9963
:100600000090490049080B9109990898A6460843AB
:100610001CD00B990A98084318D00998012440006F
:10062000420D4800410D099824050003000B2043AA
:1006300009900B980003000B20430B9050181C49A5
:100640004018002201901446104605E000200146A3
:100650000DB0F0BD032801DA034600E003239C46F9
:10066000C11A0AAE0AE05F0008ADED5B4F00F75B10
:100670007D430027AA187C41491C5B1E6145F2DDC1
:10068000410004AB5A522104120C0A43240C401CB2
:100690000828DFDB019802900099704601910090D4
:1006A000059B049A0799069800F076FAD0E70000B7
:1006B0000DFCFFFFF0B50C465C4085B0E40FE4078D
:1006C00003944C00002664085900944649080246E9
:1006D0000296224321D062460A431ED06200570D83
:1006E0004A000E032303550D012402462C4924051C
:1006F000781B1B0B360B40182343264361460090A2
:100700001C46501AB44103D30098401C009002E0EC
:10071000921800985B41002803DA0020014605B0DA
:10072000F0BD0020012109050746864611E0644618
:100730001D46141BB54106D36546521BB341744692
:1007400007430C43A646CD074008490828439218A2
:100750005B4105460D43EAD11046184313D060466D
:10076000194650407140084306D06046101AB34104
:1007700006D20122002306E000220123DB0702E06B
:100780000122D2435310009874460105381C614180
:10079000029C039D0019694100F0F1F9BFE70000D8
:1007A000FD03000010B500229623114600F0AEF9BB
:1007B00010BD00000EB5C217C10F5040CA07401847
:1007C0000021054B0293019200910A460B4600F06E
:1007D000E3F903B000BD0000330400000EB5054985
:1007E0000291002100910A460B46019100F0D4F9D4
:1007F00003B000BD330400000EB5054A029200228A
:1008000000921346019200F0C7F903B000BD00004A
:1008100033040000410040020122400AD205090EC3
:1008200080187F2901DA00207047962903DC962280
:10083000511AC840704796398840704770B5CD0F3F
:100840004A0009030123090B1B0519430B4BED0754
:100850000024520D9A4201DA002070BD074B343358
:100860009A4203DC9A1A00F089F802E00449511810
:1008700088402C43F1D0404270BD0000FF030000CF
:10088000CDFBFFFF4A0009030123090B1B05194398
:10089000094B10B5520D9A4201DA002010BD064BEB
:1008A00034339A4203DC9A1A00F068F810BD034909
:1008B0005118884010BD0000FF030000CDFBFFFF72
:1008C00010B5002904DB0124E40740428C41214695
:1008D000002B04DB1C460123DB075242A3418B4261
:1008E00000D1824210BD000010B5002904DB0124B4
:1008F000E40740428C412146002B04DB1C460123C7
:10090000DB075242A341994200D1904210BD000042
:10091000CB0FDB07490010B5490802460A4307D050
:100920000A0D07240903E401090B121B002A01DC4C
:10093000002010BDC900440F0C43C100E018D205CF
:10094000801800F0DBF810BD0122D207002800DB80
:10095000101A002900DB511A8142704710B5202A75
:1009600004DB0146203A9140002010BD9140202335
:100970009C1A0346E3401943904010BD10B5202A4D
:1009800004DB0846203AD040002110BD0B46D3407E
:10099000D0402024A21A91400843194610BD10B53A
:1009A000202A06DBCB170846203A1041C1170B431B
:1009B00006E00B461341D0402024A21A9140084380
:1009C000194610BD0048704704D80108F7B582B039
:1009D000029C00272078641C15460197302802D01D
:1009E000002D15D015E020780127641C782804D04C
:1009F000582802D0002D09D00BE0002D01D0102D79
:100A000007D1002710252078641C02E0082500E0AB
:100A10000A250026009610E000990127694308186E
:100A2000020C294680B2714300908E183804864229
:100A300001D3012001902078641C294600F04EF972
:100A40000028E9DA0398002805D0002F01D0641EA1
:100A500000E0029C04600198002806D00FF0FCFD25
:100A600002210160C81E05B0F0BD009930040843A2
:100A7000F9E7F7B5009C0E4600252778641C002F87
:100A800005D0FFF79FFF0068C05DC007F5D12B2F91
:100A900002D02D2F1ED0641E31462046029A00F04F
:100AA0002CF9002E04D03268A24201D1009A3260A3
:100AB0006A050224002A18DA0022454200268A41EB
:100AC0003346751B934109DB002240428A4111469F
:100AD00003B0F0BD012080020543DDE70FF0BCFD4F
:100AE000046000200121C907F2E70029F0DA0FF0C5
:100AF000B3FD04600020C0434108E9E7002904DA9F
:100B0000401C490001D140084000704770B40024E7
:100B1000050C05D11024000402D1002921D0112494
:100B2000050E01D100020834050F01D10001241D7A
:100B3000850F01D18000A41C002801DB4000641C4B
:100B4000002908D020252E1B0D46F540A14000D0DD
:100B500001212943084301061B1B000ADB1D02D5A6
:100B6000002070BC7047DB05181880180029F8DADF
:100B7000401C4900F5D170BC40084000704710B5DA
:100B8000002B08DA0024401C614192185B411A4393
:100B900001D14008400010BDF0B51FB482B0054639
:100BA0000C0003D008460FF031FD02E00FF02EFDDF
:100BB00020300246009021462846FFF7CFFE049BD6
:100BC000059A04460F4618431143084314D01846AB
:100BD00010431BD0009840210A1A18460599FFF7C8
:100BE000CDFE05460E46009A05990498FFF7B6FE1D
:100BF000084305D0012004E02046394607B0F0BD87
:100C00000020C11705430E432C43374300990E982B
:100C10006305401A7905E40A00220C43FD0A0A30F4
:100C200002D500200146E9E70105101969410C9C35
:100C30000D9D00196941FFF7A2FFDFE7F8B50546F2
:100C4000480040080C46284304D06000184A400D74
:100C5000904201DD2846F8BD15493539884210DC3F
:100C600088420BDB290D200308432903014305D0EB
:100C7000E00F1049C00741180020F8BD00200146D0
:100C8000F8BD161A4020821B28462146FFF766FE53
:100C900007460091284621463246FFF76FFE3A4646
:100CA000009BFFF76CFF3246FFF758FEF8BD0000CF
:100CB000330400000000F03F064C0125064E05E01D
:100CC000E36807CC2B430C3C98471034B442F7D36D
:100CD000FFF7FAF9ACE20108CCE201083A2800D2A9
:100CE0003038202302469A43412A01D31046373830
:100CF000884201D30020C0437047F7B584B0049CFC
:100D000000212078641C154601910291302802D000
:100D1000002D17D017E0012001902078641C78285E
:100D200004D0582802D0002D0AD00CE0002D01D0AC
:100D3000102D08D10020019010252078641C02E0BD
:100D4000082500E00A250027E9173E460097039191
:100D50001CE0012101910099334669430A18009271
:100D600028463A46039900F033F8009A130C002203
:100D7000C7185141009A0E4690B20090012000041D
:100D8000814201D3012002902078641C2946FFF79C
:100D9000A5FF0028DDDA0598002807D00198002873
:100DA00001D0641E00E0049C0598046002980028AD
:100DB00007D00FF051FC02210160C81E014607B0A8
:100DC000F0BD380C31040143009A38041043F6E7B3
:100DD000F0B51FB486B000200090019002900698F4
:100DE000069980B204900798090C0204001411437C
:100DF00007900027089D099806913E463C460390BF
:100E00000398A9B20204000C039004982D0C15431A
:100E1000484300212246FFF7A1FDC7197141103454
:100E20000E46402CECDB3846029AFFF797FD009AFD
:100E3000019B801800905941029801911030029056
:100E40004028CCDB00980BB0F0BD70B58C1805784D
:100E5000401C6B075B0F01D10378401C2A1106D19F
:100E60000278401C03E006780E70401C491C5B1E93
:100E7000F9D12B0705D40023521E0DD40B70491C49
:100E8000FAE70378401CCB1A921C03E01D780D7022
:100E9000491C5B1C521EF9D5A142D8D3002070BD5D
:100EA00070B5044600252068806804210840800849
:100EB000002829D020688068084000280BD02068CE
:100EC000806802210840002805D120688068102130
:100ED00008432168886004F07BFA05460EE004F0C0
:100EE00077FA401B0A2809D9A06D10210843A06594
:100EF000E06D01210843E065012070BD2068806835
:100F0000042108400028EAD10020F6E770B5054624
:100F1000AC6AA06D50210840002835D1A06D012198
:100F200049020843A0652068C0680321890208407F
:100F3000002825D1A06A002822D120680068082155
:100F4000084008281CD120688068042108408008D7
:100F500000280DD1206840680C2188432168486032
:100F6000A06DFF210131884301210843A06507E0FE
:100F7000A06D20210843A065E06D01210843E065D4
:100F8000204603F003F803E0206D416B28468847B4
:100F900070BD70B50546AC6AA06D40210843A065E0
:100FA000E06D04210843E065204603F067F870BD5A
:100FB00070B50446A56A284602F0F4FF70BD000033
:100FC00038B50446074908480068FFF791F86043C0
:100FD000009002E00098401E009000980028F9D18F
:100FE00038BD000040420F007C07002070B5044669
:100FF0000025206880688007800F012807D12068BD
:101000000068C007C00F002801D0012000E00020C8
:10101000002837D02068806805210840012800D1C9
:1010200000E0002000280AD000BF2068806802216C
:1010300008432168886003202168086009E0A06DEA
:1010400010210843A065E06D01210843E0650120FF
:1010500070BD04F0BDF905460EE004F0B9F9401B7F
:101060000A2809D9A06D10210843A065E06D01216F
:101070000843E0650120EBE720688068C007C00FE7
:101080000028EAD10020E3E770B504460025206877
:1010900080688007800F012807D120680068C0079A
:1010A000C00F002801D0012000E00020002839D125
:1010B000206880681C490840002801D1012000E018
:1010C0000020002809D1A06D10210843A065E06D23
:1010D00001210843E065012070BD2068806801217E
:1010E0000843216888600120FFF76AFF04F070F967
:1010F00005460EE004F06CF9401B0A2809D9A06DE2
:1011000010210843A065E06D01210843E06501203E
:10111000E2E720680068C007C00F0121484048404E
:101120000028E7D00020D7E71700008030B589B04D
:1011300005460C461022002105A816F03FFA22466B
:1011400005A905A80FF011FD6846007D8021084023
:1011500000281CD000BF00200AE005A9095C490056
:1011600005AB421C9A5CD211114305AA1154401CD4
:101170000F28F2DB08A9C97849060A0E08A9CA7027
:1011800000BFC8788721484008A9C87016E000BF92
:1011900000200AE005A9095C490005AB421C9A5CE5
:1011A000D211114305AA1154401C0F28F2DB08A9E3
:1011B000C97849060A0E08A9CA7000BFFF20153079
:1011C000005910280FD100BF002009E0E11DFA31BD
:1011D000095C05AA125C5140E21DFA321154401C10
:1011E0001028F3DB61E06846007D8021084000287C
:1011F0001CD000BF00200AE005A9095C490005AB2E
:10120000421C9A5CD211114305AA1154401C0F28AC
:10121000F2DB08A9C97849060A0E08A9CA7000BFFE
:10122000C8788721484008A9C87016E000BF002090
:101230000AE005A9095C490005AB421C9A5CD21181
:10124000114305AA1154401C0F28F2DB08A9C978E4
:1012500049060A0E08A9CA7000BF8021FF20153078
:101260000259E01DFA30815406E00021FF201530BC
:101270000259E01DFA308154FF2015300059401CFE
:10128000FF21153108511028EFD300BF002009E0DD
:10129000E11DFA31095C05AA125C5140E21DFA32E7
:1012A0001154401C1028F3DB00BF00BF00200AE0EF
:1012B0002146F131095CE21DFA32125C51402246AE
:1012C000F1321154401C1028F2DB00BF10222146DD
:1012D000F13101A816F058F92246294601A80FF06D
:1012E00044FC1022002105A816F068F909B030BDB1
:1012F00010B50446102200212046F13016F05EF9A8
:101300000021FF2015300151F022204616F056F939
:1013100010BD70B504460D462246102128460FF038
:1013200051FC70BDF0B585B004460F461546FF2050
:101330001530005900283ED0FF20153000591021EB
:10134000081AA84204D2FF2015300059081A00E0FC
:1013500028460646B2B2FF2115310959E31DFA337A
:10136000C818394616F010F9FF20153000598119B8
:10137000FF20153001510059102801D3B54201D189
:1013800005B0F0BD00BF00200AE02146F131095C44
:10139000E21DFA32125C51402246F1321154401CD7
:1013A0001028F2DB00BF22462146F13108460FF03B
:1013B000DCFBBF19AD1B21E000BF002008E0214687
:1013C000F131095C3A5C51402246F1321154401C23
:1013D0001028F4DB00BF10222146F131684616F0D8
:1013E000D3F82246694668460FF0BFFB10226946D3
:1013F0002046F13016F0C8F81037103D102DDBD81C
:10140000AAB23946E01DFA3016F0BEF8FF201530BA
:10141000055100BFB4E7000010B5044600200349A1
:101420000870204600F070F810BD0000840800200D
:10143000F8B504460D4616460127094800780028ED
:1014400008D101200649087032462946204600F09E
:10145000FFF80746002F01D10020F8BD0120FCE76E
:1014600084080020F8B504460D46002600270F48E2
:101470000078002803D00E480078844201DD012066
:10148000F8BD002008E0011949000A4A515A8E1996
:101490007F1C06490978401801190C29F3D33946F5
:1014A0003046FEF725FE28800020E9E7D40600201C
:1014B000CC0600203C1700207CB506460C460F48A1
:1014C0000078844201DD01207CBD002510E0A800E9
:1014D0000B490968085800900120000301906946F3
:1014E000304602F0AFFC002801D00120ECE76D1C73
:1014F000A542ECDB034804700020E5E7CC060020A1
:10150000D0060020D406002010B50446002C00D1DF
:1015100010BD204602F048FD002007490870074929
:101520000870074908700749086018210648FEF747
:1015300052FE00BFECE70000D4060020D5060020D4
:10154000CC060020D00600203C17002010B5014634
:1015500001220C480068002801D1104610BD00206F
:1015600008E08300074C2468E3588B4201D1002235
:1015700004E0401C044B1B789842F2DB00BF10468D
:10158000ECE70000D0060020CC060020F0B50246B3
:101590000B460124002013E000210AE08D005D5974
:1015A00086000A4FBE59B54201D1002403E04D1C0C
:1015B000E9B29142F2DB00BF002C00D102E0401CF6
:1015C0000628E9DB00BF2046F0BD00008CCC0108F6
:1015D000F8B506460C461546002700200090002E60
:1015E00005D0002D03D017480068002801D1012044
:1015F000F8BD2046FFF7AAFF002801D00120F7E739
:101600001148007800281AD100BF0AE081000D4A75
:1016100012685158A14202D10127009005E0411CF7
:10162000C8B20A4909788842F0DB00BF002F01D117
:101630000120DDE729460098FFF714FFD8E70220D4
:10164000D6E70000D0060020D5060020CC060020FA
:10165000F8B505460E46174600200090002D01D033
:10166000002F01D10120F8BD062E01DD0120FAE78F
:101670002548067039463046FFF788FF002802D11A
:101680002248076001E00120EDE72C462048206059
:10169000204602F089FC002801D00120E3E7012167
:1016A000890761610021A161616201212162042138
:1016B000E1630021E164A16461640121A162002170
:1016C000E162FF21C2312163002161630121A16335
:1016D00009032164002060600721E161204602F0D7
:1016E000CFFC002801D00120BDE70021204602F0F8
:1016F0004DFB002801D00120B5E731462046FFF719
:10170000DBFE00900098AEE7CC060020D00600205B
:101710000024014070B504460025002C01D10120B1
:1017200070BD25460848007800280BD101200649E5
:1017300008700C220549284602F0C8FE002801D096
:101740000120EDE70020EBE7D50600203C17002044
:10175000F7B505460E4600272846FFF7DBFF0CE0ED
:1017600031462846029AFFF733FF0446002C00D189
:10177000FEBD012C01D10120FAE7781C07467D212E
:10178000C9008842ECD30120F2E70000F0B504461E
:101790000D460126944800781623181AC1B2A01EDF
:1017A00003000EF04AFF120A3149587090A8B7C6DC
:1017B000EFEFDEEFEF19F0EFEDEF8C4800788842A5
:1017C00009DA8A480078894B1B785B1C874F3B708D
:1017D000874B1C540026FEE0481E844B1B78984221
:1017E00011DD82480078814B1B785B1C7F4F3B707A
:1017F0007F4B1C54384600783B461B785B1C3B7083
:101800007B4B1D540026E6E0481E784B1B7898421F
:1018100011DD76480078754B1B785B1C734F3B706D
:10182000734B1C54384600783B461B785B1C3B705E
:101830006F4B1D540026CEE06C480078884209DAD0
:101840006A480078694B1B785B1C684F3B70684B9B
:101850001C540026BFE0481E644B1B78984211DDE3
:1018600062480078614B1B785B1C604F3B70604B9B
:101870001C54384600783B461B785B1C3B705C4B25
:101880001D540026A7E0881E584B1B78984219DD8E
:1018900056480078554B1B785B1C544F3B70544B9B
:1018A0001C54384600783B461B785B1C3B70504B01
:1018B0001D54384600783B461B785B1C3B704C4BF4
:1018C0001A54002687E0481E484B1B78984211DDC9
:1018D00046480078454B1B785B1C444F3B70444B9B
:1018E0001C54384600783B461B785B1C3B70404BD1
:1018F0001D5400266FE03D480078884209DA3B48D5
:1019000000783A4B1B785B1C384F3B70384B1C54AB
:10191000002660E035480078884209DA33480078CC
:10192000324B1B785B1C314F3B70314B1C540026F3
:1019300051E0481E2D4B1B78984211DD2B48007852
:101940002A4B1B785B1C294F3B70294B1C54384693
:1019500000783B461B785B1C3B70254B1D540026D2
:1019600039E022480078884209DA204800781F4B85
:101970001B785B1C1D4F3B701D4B1C5400262AE03E
:1019800014E000E025E019480078184B1B785B1C38
:10199000164F3B70164B1C54384600783B461B785C
:1019A0005B1C3B70124B1D54002614E00F4800785E
:1019B0000E4B1B785B1C0D4F3B700D4B1C54384677
:1019C00000783B461B785B1C3B70094B1D5400267E
:1019D00001E00220F0BD00BF002E02D10120054B26
:1019E00018703046F6E70000E4070020E307002007
:1019F000C5290020E207002070B503460C460020F0
:101A00001C4D01216956012B32D11B4D2E56B1427E
:101A100003D10025194E35602AE0184D2D68402D60
:101A200001D9012000E00020144D2D68602D1FD940
:101A3000124D2D786D1EED06ED0E002D18D10E4DB8
:101A40000026AE57B14203DD082901D1042106E08A
:101A5000094D0026AE57B14201DD4D1E69B2064D5B
:101A60000026AE57B14203D1012C01D100BF00BF07
:101A7000117070BD602D00208A070020DC07002057
:101A800010B504480CF034FF0AF054FE02480EF082
:101A900030FA10BD4C320020F017002001480078C9
:101AA00070470000D60600200448006903494969D0
:101AB00048400249496A4840704700004000F81F0A
:101AC0001949496A090E01701749496A0902090E44
:101AD00041701549898C0904090E81701249898C5D
:101AE000C17011494969090E01710F49496909021B
:101AF000090E41710C49898A0904090E81710A494C
:101B0000097DC17108490969090E0172064909690F
:101B10000902090E41720449098A0904090E8172F9
:101B20000149097CC17270474000F81F10B5FFF7EA
:101B3000BBFF044619F0B0FE0021C943002016F097
:101B4000F3F910BD08B524480078002819D103F036
:101B50004DFC0DF0C5F80DF0DDFA00F04FF88722CE
:101B600092001E491E4801F0D3F9012292021D493C
:101B70001B480C3001F0CCF900F07AF800F072F854
:101B800003E000F03BF80DF00BF917481D231E226F
:101B90001F21009015480CF05BFF0AF015FE00BFF6
:101BA0001348C06A802108431149C8620846C06AC8
:101BB00080210840009000BF00BF0748007800283F
:101BC00008D101200449087001F0A0FB012801D1CF
:101BD00000F066F908BD0000D70600202818002094
:101BE0000C180020441A0020FFFF00004C32002097
:101BF0000010024010B512F035F810BD10B50C48B9
:101C000004684B20C001844209D04000844206D0C1
:101C1000E1200002844202D04000844203D12046E9
:101C200000F008F803E0E120400200F003F810BDE6
:101C3000000A08083EB504460020094948700A23F6
:101C40000922002106480EF087F90020009001903B
:101C5000034622460221029001480EF031F93EBDB2
:101C6000F017002010B502F05BFD02F04FFD10BD33
:101C700008B500BF1548006B01210903084313494B
:101C800008630846006B89140840009000BF00BF3D
:101C90000F4810490860012008710F490D48816004
:101CA0000821C1600121417100210161416181610F
:101CB000012008490862084602F0E0FC002804D030
:101CC00006A00EF065FB00BFFEE708BD0010024055
:101CD000003002406C260020211000000A0D3E3E1C
:101CE0002043524320696E6974206572726F7200DE
:101CF000F8B504460C2060433D49401840790C215A
:101D000048433C490D5A002600273B4800780028EC
:101D10000DD109F023FB0646B54201DD284600E05F
:101D20003046054635480068002800D00127344871
:101D30000078012810D13148006868432F490968AC
:101D4000411A0C2060432A4A801840790C225043E3
:101D5000284A801881600AE000210C206043244A50
:101D6000801840790C225043224A80188160012F4C
:101D700021D10C2262431E4BD21852790C235A43B4
:101D80001C4BD21892681F4BD1180C226243184B7F
:101D9000D21852790C235A43164BD218906816F079
:101DA000C3F80C216143124A891849790C22514326
:101DB000104A8918886014480068002805D0134824
:101DC000006811490968884210D00C480068104921
:101DD0000988484309490968401A0E4909684018AA
:101DE0000C4908600848006808490860F8BD000010
:101DF000F4290020FC070020D20700203008002032
:101E000014080020102700000C0800203C080020C7
:101E10000A0800201008002010B516480078012894
:101E200027D115480078002823DD7D2109020020F4
:101E300016F07AF8014611480278012090407D2280
:101E40001202504308180E4908600E4800680968DD
:101E500040180C490860084801780BA00EF098FA69
:101E600005480078002804DD03480078401E024938
:101E7000087010BDC1070020BD070020B407002076
:101E8000B8070020100800200A0D3E3E206A6F6946
:101E90006E206279206F746161202825642900001A
:101EA00010B50C480078002812D10B490B480DF0F2
:101EB00087F97D21C90009480DF068FA07480DF03F
:101EC0006FFA01E00DF024FA024800780028F9D0FA
:101ED00010BD0000D806002051850008441E0020D7
:101EE0003EB504201D49087010F0F4FC002833D0E2
:101EF000012069460870684605F018FD0446002C6C
:101F000004D168460079012800D03EBD042168460E
:101F10000170134800680190684605F0A1FD052195
:101F2000684601700F480190684605F099FD06214A
:101F3000684601700C480190684605F091FD01204B
:101F40000A4908700A480078002802D10220034993
:101F5000087001200749087000BFD6E76B00002019
:101F600054000020200000203000002051000020FC
:101F7000D4070020680000200146084800780128A6
:101F80000AD108782D2807D148782D2804D18878DF
:101F90003E2801D1012070470020FCE79008002076
:101FA0007047704707480078012802D1032005498F
:101FB000087004480078002802D102200149087006
:101FC00070470000A306002007480078012802D1CE
:101FD00000200549087004480078032802D1022037
:101FE0000149087070470000A3060020F0B589B0D1
:101FF000044600BF00BF00BF24480078FEF7EEFB98
:1020000005460022224BFEF7EDFA0391029021498A
:1020100009784906490E7D22D2005143601AFEF725
:10202000DDFB01910090039B029AFEF7CDFA05912A
:102030000490FEF76DFC07900DF01EF81649096834
:10204000401A06900698FEF7ADFB05460799FEF785
:1020500013FA074611480068FEF7A4FB0546394607
:10206000FEF70AFA074607E02046FEF79BFB054607
:102070003946FEF7ACF9074600213846FEF764FC06
:10208000F2D33846FEF7C6FB09B0F0BDA00600202B
:1020900000400F409C06002098060020A806002063
:1020A00070B50546002400260CF0E6FF06490968D5
:1020B000461AAC1B05480068241A00E06419002C7D
:1020C000FCDB204670BD000098060020A80600201A
:1020D000F8B504460025002600270CF0CDFF0B497B
:1020E0000968461AA51B00F02FF9802802D108487C
:1020F000076808E000F028F9402802D10448476842
:1021000001E003488768ED1B2846F8BD98060020CB
:10211000B006002010B503461C4600F049F900281F
:1021200009D0064800680649081AC418E1200001D1
:10213000844200D90446204610BD000094060020C9
:102140002AE8010007480078074909684843074919
:10215000096840181E214843054940180549086090
:102160007047000090060020880600208C060020A2
:10217000480800009406002030B58DB01C4C1D4D61
:102180001022002105A815F019FAF02200211A48A2
:1021900015F014FA184A102105A80EF013FD1022AC
:1021A000002109A815F00AFA002007E0215C09AA1D
:1021B00011542A5C09AB011D5A54401C0428F5DB5C
:1021C0000D4A01A909A80EF0D0FC0C4800680028AF
:1021D0000BD0694649790A026946097950180749BE
:1021E0000968FDF785FF064801600DB030BD0000AD
:1021F0009C060020A8070020481600208806002022
:102200008C06002010B50C4800214156002900DA48
:1022100010BD094801780120884000B207490880B4
:102220000548017801200003084105490860FFF7CF
:10223000A3FF00BFECE70000850600208606002013
:102240008806002000B50D480078032802D1002040
:102250000B49087009480078022802D1002009497A
:10226000087000F0B5F8002806D000F073F80028D8
:1022700002D1012000F058FA00BD0000340800200F
:10228000A4060020A306002000B514480078012809
:102290000AD100F09DF8002806D000F05BF8002875
:1022A00002D1012000F040FA0C48007802280DD13C
:1022B00000F08EF8002806D000200949087002209E
:1022C00000F032FA02E0002000F02EFA0348007815
:1022D000032802D100200349087000BD3408002003
:1022E000A3060020A40600200B480078022803D093
:1022F00009480078032802D10020074908700748E0
:102300000078022803D005480078032802D1002075
:102310000249087070470000A3060020A4060020B0
:102320000148006870470000AC06002001480068C2
:1023300070470000A8060020002002490A56110438
:10234000084370478506002001490020085E704759
:10235000860600200148007870470000C90600206A
:1023600010B500200849087008490870084908702D
:10237000084908700849087008480DF055F80848E1
:102380000DF052F810BD0000A306002090060020BA
:10239000A4060020A2060020A1060020302E002066
:1023A000442E00200148007870470000A20600205B
:1023B00005480078054900228A5E904201DB012031
:1023C00070470020FCE700009006002086060020F1
:1023D00001480078704700008406002010B50648C8
:1023E0000078032806D10121084607F06FFE02207D
:1023F0000149087010BD0000A306002010B5084870
:10240000007803280BD10748017807A00DF092FF50
:102410000121002007F05AFE02200149087010BD7A
:10242000A4060020900600202D2D3E20536C6F74D2
:102430004E282564290A0000F0B58BB004460D46ED
:102440000126002700200A90099008900790059027
:10245000069014216846FDF7BEFE132D02D0002021
:102460000BB0F0BD0020694608701322214600A879
:10247000013015F089F83046F2E70000074800788F
:10248000012802D10320054908700448007800287B
:1024900002D102200149087070470000A406002004
:1024A00007480078012802D1002005490870044837
:1024B0000078032802D1022001490870704700000B
:1024C000A406002010B500241C480078012826D15D
:1024D0001B48007800282CD11A480078002807D023
:1024E00019490968194A501AFFF780FD044607E0A8
:1024F000154909687D229202501AFFF7D1FD044662
:10250000214613480CF042FF11480CF049FF2146C8
:1025100010A00DF03DFF01200949087009E019A045
:102520000DF008FF0121084607F0D0FD0220044904
:102530000870032000F0F8F810BD0000A10600208C
:10254000A3060020A0060020AC06002018F0010021
:10255000302E00200A0D3E3E20507265706172657B
:10256000206E65787420626561636F6E2077696E96
:10257000646F77206166746572202575206D732005
:10258000000000002D2D3E20436C61737342507299
:102590006570617265426561636F6E57696E646FE5
:1025A000770A000070B5044600250C480078012821
:1025B00012D10B490968601AFFF78AFD0546002D04
:1025C00008DD294607480CF0E1FE06480CF0E8FE5D
:1025D000012070BD0020FCE70120FAE7A1060020E1
:1025E000BC060020442E002000B5FFF7F1FE0028B5
:1025F0000BD00848006800280AD107480078002856
:1026000006D1022000F090F802E0002000F08CF8E3
:1026100000BD000018080020A306002010B5FFF739
:10262000D7FE00281FD013480078002821D1FFF7DB
:1026300089FD11480078114900228A5E904203DB2F
:10264000022000F071F814E00D480068FFF7AAFFBF
:10265000002802D001200749087007480078401C74
:102660000549087005E0002000F05EF800200249EE
:10267000087010BDA40600209006002086060020E9
:102680009406002010B500F063F810BD034A1060F6
:10269000034A11700122034B1A7070479C060020F8
:1026A000A0060020A106002010B50CF0E5FC0149B1
:1026B000086010BD980600200149086070470000BE
:1026C000AC0600200149086070470000A806002001
:1026D0000149086070470000C0060020FF2109047E
:1026E0000140090C49B2014A11707047850600206B
:1026F000072802DC41B2014A1170704785060020AC
:102700000146082905DB0D2903DC0348017001207F
:1027100070470020FCE70000C8060020014908605F
:1027200070470000C406002005490978814200D1A5
:102730007047062801DA0249087000BFF8E7000078
:10274000C906002001490870704700008406002077
:1027500010B53048007830490978884206D000200A
:102760002E4908702C4800782A4908702A480078B9
:1027700003000DF062FF05040E1B2D3B4C002748A3
:102780000078002804D1FFF7EBFD012023490870F1
:102790003DE022480078002804D100F06DF80120C7
:1027A0001E4908700220FFF7BFFF30E01B48007889
:1027B00000280CD1FFF70CFE002802D0FFF782FEA4
:1027C00002E00020FFF7B0FF0120144908701EE06E
:1027D00012480078002802D1012010490870FFF744
:1027E000FDFDFFF701FF00BF00BF10E00B480078C0
:1027F000002807D1FFF706FD0020094908700120D5
:1028000006490870FFF70AFFFFF7F8FD00BF00BF99
:1028100010BD0000CB060020C9060020CA0600201B
:102820009006002038B5044600200090FFF73CFFDA
:102830006A4613212046FFF7FFFD00280DD0042033
:10284000FFF772FF01200A490870009800280ED097
:1028500000210098FFF71AFF09E0064800780128D8
:1028600003D10220FFF760FF01E000BF00BF38BDC9
:10287000A2060020A106002000BF00BF7047000094
:10288000FFB583B005460E46174600200290019022
:102890002A460CA102A80DF0A5FE02A90698FDF794
:1028A000A5FC002409E0325D07A101A80DF09AFE05
:1028B00001A90698FDF79AFC641CBC42F3DB07B043
:1028C000F0BD0000256420002530327800000000B3
:1028D000FFB581B005460F4628785B2852D1012408
:1028E00004E0285D5D2800D102E0641CBC42F8DBF6
:1028F00000BFBC4243DA641C00260BE0F000801BE2
:10290000214A811822462846FDF7A0FC002800D164
:1029100002E0761C0D2EF1DB00BF0C2E2FDA641CBA
:10292000039806702819042218A1FDF78FFC0028CF
:1029300003D101210498017021E02819052215A175
:10294000FDF784FC002803D102210498017016E0F1
:102950002819052211A1FDF779FC00280FD1641D6B
:10296000009003210498017007E00A210098484371
:10297000295D303940180090641CBC42F5DB012011
:1029800005B0F0BD0020FBE710070020446F6E6526
:1029900000000000526561647900000045727220F9
:1029A0002D00000010B501200249086002480CF01B
:1029B0003BFD10BD180600207C0E002010B504461B
:1029C000214605480CF0E2FC00200449086002485A
:1029D0000CF0E6FC10BD00007C0E00201806002064
:1029E000FFB583B006460024002500270020029092
:1029F000019049E0305D302801DB012000E000203B
:102A0000315D392901DC012100E000210840002866
:102A100012D0002D05D10A207843315D3039471896
:102A200031E0052D2FDA6D1C0A2102984843315DF3
:102A300030394018029026E0305D2E2811D1002D4B
:102A400001D1012501E00120019064213846FDF704
:102A500065FB02910299781A6421FDF75FFB074636
:102A600011E0305D2C280BD1002D00D16D1C04E04D
:102A70000A210298484302906D1C052DF8DB05E001
:102A80000220019002E0641C0A2CB3DB00BF069810
:102A9000002803D05A2F01DD032001900C98002854
:102AA00003D0B42F01DD0320019010490298884221
:102AB00001DD032001900198002805D104980770DA
:102AC0000599029808600EE00198012801D100BF25
:102AD00009E00198022801D100BF04E00198032811
:102AE00001D100BF00BF07B0F0BD0000C027090042
:102AF00030B50246002300200AE00124844014403F
:102B000001258540AC4201D15C1CE3B2441CE0B21B
:102B10008842F2DB184630BDF8B504460025002691
:102B200000270BE07900605A1021FFF7E1FF401900
:102B3000C5B230461030C6B2781CC7B2402EF1DBA9
:102B40002846F8BD10B50249086D01F073FF10BDAD
:102B50009017002010B50249086E01F06BFF10BD00
:102B6000581F002010B50449086E01F063FF0249A8
:102B7000486E01F05FFF10BDC81F002010B504684B
:102B800063608468102C04D10468A2600468E1606A
:102B900003E00468A1600468E26010BD10B504465B
:102BA000204602F0D6F910BDFEB5044617490120B3
:102BB00008561749085C45B20027144801214156C0
:102BC00002910298042800DA0127002F02D1002088
:102BD000206019E00F480121EAB2009101900E49EE
:102BE00009780C2359430D4B58580D490B78002197
:102BF0000EF0BAFB46B2072E03DBFF202D3020601B
:102C000001E00020206000BF0120FEBD602D0020FB
:102C100048CD0108A9E8000815080020F429002083
:102C2000F807002070B504460D4608F09DF808F03E
:102C300029F90646A4B22A46214630460BF084FF05
:102C400070BD000010B51148114908601148486076
:102C5000114888601148124908600120C043114999
:102C60000860084605F0D0F80D49094804F0C0FC9A
:102C70000D490E480CF0A4FA0D480078002804D144
:102C800008F0E0FB01200A49087010BD31800008FF
:102C9000F40800205D8000083D8300089D1A0008AC
:102CA0005C00002000090020FD9800082C0A00208C
:102CB0007200002030B5024600231046D417240FBE
:102CC00024182405230E042B01DC482A01DB0020F4
:102CD00030BD1046D417240F241824112401151BCD
:102CE0000124AC405D004D5BA5435C000D53012009
:102CF000EEE710B509F066F9012002F04DFA022066
:102D000002F04AFA10BD10B509F05CF9042002F097
:102D100043FA082002F040FA10BD10B509F052F94C
:102D2000102002F039FA202002F036FA402002F09A
:102D300033FA802002F030FAFF20013002F02CFA42
:102D40000120400202F028FA0120800202F024FA59
:102D50000120C00202F020FA0120000302F01CFA58
:102D60000120400302F018FA0120800302F014FA57
:102D70000120C00302F010FA10BD00BFFEE700BF43
:102D800000BF7047704700002F488069FF21013164
:102D90000840884205D12D484069082108432B4945
:102DA000486129488069012149020840884205D1CB
:102DB0002648406904210843244948612248806923
:102DC000012189020840884205D12048406902213A
:102DD00008431E4948611C4880690121C902084016
:102DE000884205D1194840691021084317494861B4
:102DF00015488069012149030840884205D11348DC
:102E0000406901210843114948610F488069012147
:102E100049040840884205D10C48406920210843F4
:102E20000A4948610848806901210904084088422C
:102E300005D10648406940210843044948610448D7
:102E40000149886170470000002002409026002060
:102E5000002F030070B5044602F0BAFA05460BE0F5
:102E6000601C002808D0002C04D002F0B1FA401BEE
:102E7000A04201D9032070BD24488069C007C00F5B
:102E80000121484048400028EAD1204880690221B9
:102E90000840022801D11D4988611C488069FF2132
:102EA00001310840000A002829D1184880694900EA
:102EB0000840400A002822D114488069490008408F
:102EC000800A00281BD11148806949000840C00AC7
:102ED000002814D10D48806989000840400B002863
:102EE0000DD10A48806909010840400C002806D12C
:102EF0000648806949100840000C002803D0FFF7FD
:102F000043FF0120B7E70020B5E7000000200240A2
:102F100000230380438041600281704770B50446FE
:102F20000D462189681CFDF7F9F888B270BD70B5AF
:102F3000044621882046FFF7F1FF61680D5C218877
:102F40002046FFF7EBFF2080284670BD70B5044691
:102F50000D4661882046FFF7E1FF60806188606868
:102F6000455470BDFFB581B004460D4600210020D8
:102F70000022002600965B1C29E0665C302E0BDBED
:102F8000665C392E08DC002800D0401C0A26564317
:102F9000675C303FF21919E0665C2E2E06D10028DE
:102FA00001D1401C12E0012600960FE0665C2C2E39
:102FB00009D1002800D1401C02E00A267243401CBF
:102FC0009842FADB06E00226009603E0491C039EC5
:102FD000B142D2DB00BF009E002E01D116B22E807E
:102FE00005B0F0BDF7B582B005460E4607223CA1FC
:102FF0003046FDF72BF9002870D10027002466E049
:10300000305D2C2862D17F1C641C3B000DF015FB49
:103010000C5C070C16222C383E444C5C545C301976
:1030200029460BF0E7FF50E0002000903019012303
:103030002A460832E91DFFF7D3FC46E0305D4E28F2
:1030400002D10120A87104E0305D532801D1002095
:10305000A8713AE001200090301900232A4610326E
:10306000D11EFFF7BDFC30E0305D452802D10120C4
:10307000287304E0305D572801D10020287324E034
:1030800030192946143104F0FCF91EE030192946A4
:10309000183104F0F6F918E030190123032229460B
:1030A0001C31FFF75FFF10E030190123062229468B
:1030B0001E31FFF757FF08E0301901230622294689
:1030C0002031FFF74FFF00E000BF00BF641C0498F1
:1030D000844295DB012005B0F0BDFFE70020FAE750
:1030E0002447504747412C00F7B582B005460E46AD
:1030F000072236A13046FDF7A9F800280DD0072297
:1031000034A13046FDF7A2F8002806D0072233A1EB
:103110003046FDF79BF8002855D1002700244CE0ED
:10312000305D2C2848D17F1C641C3B000DF085FAD3
:103130000842050E1A2430363F4200200090301914
:1031400001232A1D691CFFF74BFC34E0305D4E283B
:1031500002D10120287004E0305D532801D1002005
:10316000287028E001200090301900232A460C32F4
:10317000D11EFFF735FC1EE0305D452802D101204D
:10318000287204E0305D572801D10020287212E037
:103190003019294610310BF02DFF0CE0305D41282D
:1031A00002D10120E87401E00020E87403E0305D02
:1031B000287500E000BF00BF641C04988442AFDBA8
:1031C000012005B0F0BD0020FBE700002447504778
:1031D0004C4C2C0024474C474C4C2C0024474E4769
:1031E0004C4C2C00F7B582B005460E46072241A193
:1031F0003046FDF72BF800280DD007223FA13046BE
:10320000FDF724F8002806D007223EA13046FDF73E
:103210001DF800286BD10027002462E0305D2C28C7
:103220005ED17F1C641C3B000DF007FA0C58070CA4
:10323000151F2B35414951565758301929460BF067
:10324000D9FE4CE0305D412802D10120287601E012
:103250000020287643E000200090301901232A4600
:103260000832E91DFFF7BCFB39E0305D4E2802D182
:103270000120A87104E0305D532801D10020A8711D
:103280002DE001200090301900232A461032D11E73
:10329000FFF7A6FB23E0305D452802D1012028730B
:1032A00004E0305D572801D10020287317E0301961
:1032B0000123052229461431FFF754FE0FE030198F
:1032C0000123052229461631FFF74CFE07E030198D
:1032D000E91C0BF08FFE02E000BF00E000BF00BF62
:1032E000641C0498844299DB012005B0F0BD0020E5
:1032F000FBE70000244750524D432C0024474C521A
:103300004D432C0024474E524D432C000020704763
:10331000024600210FE0C800094B1858904208D817
:10332000481CC0001858904203D9C800C018007942
:103330007047481CC1B21529EDD300BFFEE700005D
:10334000D0CD0108FEB504460F4615462007000FF4
:1033500000902609062D01DA0020FEBD2148844296
:1033600005D121A13846FCF741FF0120F5E73300E4
:103370000DF063F907050A0F14191E2328001BA17D
:103380003846FCF733FF1FE019A13846FCF72EFF43
:103390001AE018A13846FCF729FF15E016A13846B7
:1033A000FCF724FF10E015A13846FCF71FFF0BE0E7
:1033B00013A13846FCF71AFF06E012A13846FCF7C5
:1033C00015FF01E00020C8E700BF002001900EA11A
:1033D00001A8009A0DF006F901A93846FCF706FF8E
:1033E0000120BAE7FFFF00004E43000050415F009C
:1033F00050425F0050435F0050445F0050455F0003
:1034000050465F0050485F0025640000FFB583B060
:1034100005460C4616460C9F2011062802D907487F
:10342000844208D10D9800970190324621462846E3
:10343000069B00F005F807B0F0BD0000FFFF00009C
:10344000F0B587B004460E4615461F4626805A48FA
:10345000864201D107B0F0BD20780107090F012095
:10346000884060802088F0210840002810D1052085
:103470000007606000BF5148C06A012108434F49FE
:10348000C8620846C06AC007C00F019000BF63E071
:103490002088F021084010280FD14948606000BF03
:1034A0004648C06A022108434449C8620846C06AC7
:1034B00002210840019000BF4EE02088F021084022
:1034C00020280FD13F48606000BF3C48C06A0421FB
:1034D00008433A49C8620846C06A0421084001907E
:1034E00000BF39E02088F021084030280FD136484D
:1034F000606000BF3148C06A082108432F49C86294
:103500000846C06A08210840019000BF24E02088D6
:10351000F021084040280FD12C48606000BF2748A8
:10352000C06A102108432549C8620846C06A1021B4
:103530000840019000BF0FE02548606000BF1F48B1
:10354000C06A802108431D49C8620846C06A8021BC
:103550000840019000BF00BF608802900C98049062
:1035600002200590002D02D10020039017E0032DCA
:1035700002D10320039012E0022D09D1012F02D1C4
:103580001220039001E0022003900D98069006E0BF
:10359000012F02D11120039001E00120039002A924
:1035A000606801F009FE012D03D120460D9900F05D
:1035B000D5F800BF4EE70000FFFF000000100240FA
:1035C0000004005000080050000C00500010005093
:1035D000001C005010B50446002C00D100BF20880C
:1035E0000449884201D1002010BD6188606801F063
:1035F000DFFEF9E7FFFF000010B586B004466088E3
:1036000001900320029001A9606801F0D5FD06B089
:1036100010BD0000F0B587B004460D4616461F46A3
:103620000020069005200590002F01D107B0F0BDC5
:1036300060880090012D02D14448019006E0022DDF
:1036400002D14348019001E04248019000200290DD
:10365000022003906946606801F0AEFD33000CF073
:10366000ECFF050405080B0F0E0000BF03200690B9
:1036700009E00220069006E00120069003E000BF6A
:103680000020069000BF00BF6188FF220132881A27
:1036900091423FD012DC102938D008DC01292DD00E
:1036A00002292CD004292DD008293DD12BE0202936
:1036B0002DD040292CD0802936D12AE00F221202A9
:1036C000811A90422AD00DDCFF380138002822D020
:1036D000FF38FF38023800281ED001218902401A25
:1036E00022D11AE001200003081A18D00121490351
:1036F000401A15D04900401A16D112E000BF05202B
:10370000059012E000BF062005900EE000BF00BF4C
:1037100000BF00BF00BF00BF00BF00BF00BF00BFB1
:1037200000BF0720059000E000BF00BF2078000721
:10373000800E09490F5000220699059801F094FE69
:10374000059801F085FE00BF70E700000000111031
:103750000000211000003110581E002070B50446F2
:103760000D46002C02D06068002800D100BF2088E0
:103770000549884200D170BDEAB26188606801F0F5
:1037800020FE00BFF7E70000FFFF000010B5044671
:1037900020880011062803D82046FFF71BFF10BD24
:1037A0000020FCE710B5044620880011062802D846
:1037B0002046FFF721FF10BDF8B504460D4616461A
:1037C0001F4620880011062805D83B463246294668
:1037D0002046FFF71FFFF8BD70B504460D46208850
:1037E0000011062803D829462046FFF7B7FF70BD11
:1037F000F8B505460E461746032417E0032C06D1FC
:103800003A463146284600F04FF804460EE0052CB3
:1038100000D10CE0002C06D100220C21284600F03B
:1038200043F8044602E0042C00D100E0E6E700BFC4
:10383000F8BDFFB581B007460D461E460A9C002222
:1038400011463846FFF7D4FF324608213846FFF7C5
:10385000CFFF2A4609213846FFF7CAFF072138461D
:10386000039AFFF7C5FF0B98012805D101220B2110
:103870003846FFF7BDFF04E000220B213846FFF772
:10388000B7FF6420FFF78AF9052C03D0042C01D080
:10389000032C07D1002221463846FFF7A9FF01205B
:1038A00005B0F0BD0020FBE7F7B584B005460E4635
:1038B00000270C210391002102910C2E34D068784E
:1038C0000C2800D001272878002806D0012808D02D
:1038D00002281FD0032825D120E0002E00D0022787
:1038E00021E033000CF0A9FE0C0F071208090A10A2
:1038F0000B0C0D0E111200BF00BF00BF00BF00BFB8
:1039000000BF00BF00BF00BF00BF01E0022700BF33
:1039100000BF08E0062E00D0022704E0022E00D0EF
:10392000022700E000BF00BF88480068884988423D
:1039300001D9032708E085480068002804D083489F
:103940000068401C814908603B000CF076FE0512BF
:103950000406080F11000C260CE00C260AE00C26C9
:103960000C20687000207949086003E00C2601E013
:1039700000BF00BF00BF0C2E11DA10217548FCF704
:103980002AFCF000801B744A81187248FCF755FC31
:103990004020704908706E7001206C490860330047
:1039A0000CF04BFE0C072608090A0B0D5527280CB6
:1039B000299200BF00BF00BF00BF00BF00BF0024AE
:1039C00012E06448005D5D280DD10D206149085565
:1039D0000A21604A601C1154A01C82B25D495F48F4
:1039E00003F0ECFC02E0641C102CEAD300BF6CE096
:1039F00000BF00BF00BF002425E05648005D5D28E1
:103A000020D120222046641C52490A5454A101A806
:103A1000069A0CF0E7FD4F49081901A9FCF70DFCC7
:103A200001A8FCF703FC04190D222046641C494937
:103A30000A540A222046641C0A54A2B2474803F0E2
:103A4000BDFC02E0641C102CD7D300BF3DE0002475
:103A500036E04048005D5D2831D120222046641CBC
:103A60003C490A5431222046641C0A542022204634
:103A7000641C0A543AA16846069A0CF0B3FD354915
:103A800008196946FCF7D9FB6846FCF7CFFB041917
:103A900020222146641C2F48425430222046641CB8
:103AA0002C490A540D222046641C0A540A2220463E
:103AB000641C0A54A2B2294803F080FC02E0641C92
:103AC000102CC6D300BF00E000BF00BF02AA03A9AC
:103AD000284600F05BF86988401868806878694675
:103AE000097B88422ED16846007A01281ED1687869
:103AF00003000CF0A2FD070D050E08090A0F1200C5
:103B0000032028700AE000BF00BF0220287005E0F3
:103B100000BF00BF0120287000E000BF00BF0527E4
:103B20000C2068700020094908600BE06846007AA4
:103B3000022801D100BF05E06846007A032801D1C0
:103B400000BF00BF384607B0F0BD00007807002076
:103B5000881300005C26002010070020C81F0020EA
:103B60002564000000B585B00020009003460122C6
:103B70001221019002A8FFF749FCC820FFF70EF8B8
:103B8000012102A8FFF728FE05B000BDF7B582B0FD
:103B900006460F460024774800684068FF2101313F
:103BA000081A7549088075480088098888423DDDF3
:103BB00073480088FF30013070490988401A01219C
:103BC000490288421ADA6D4A12884B109A1A0192F9
:103BD0006C4A6A4B1B88D1186B4A694B1B88D018FA
:103BE000019AFCF7DFFA65480088FF210131081AC5
:103BF0006349098840186249088014E060490988CF
:103C000001235B025A1A5F495C4B1B88C91801915A
:103C10005D495B4B1B88C8180199FCF7C3FA01206A
:103C200040025749088000205449088052480088C3
:103C30005249098888423DDD514800884E4909882B
:103C400040184E490988401A01214902884219DA70
:103C50004A4800884B101A1A4A48484B1B88C1181A
:103C60004948474B1B88C0180190FCF79BFA424813
:103C7000008842490988401A41490988401840494A
:103C8000088013E03E48008801235B021A1A3D4871
:103C90003A4B1B88C1183C48394B1B88C01801900F
:103CA000FCF780FA0120400235490880324800883C
:103CB0003249088000244CE03348005D0D2846D18D
:103CC0003149601C085C0A2841D1A01C085C5B28B3
:103CD0001FD1A01C85B217E02B48405D0D2811D1E3
:103CE0002949681C085C0A280CD12A1B921E91B233
:103CF000254A1219901C3A46049BFEF7E9FD00285C
:103D000000D005E0681C85B21D4800888542E3DBD1
:103D10001AE03A4621461C48049BFEF7D9FD0028CC
:103D200012D1224618497068FFF75CFA00280BD1BF
:103D300022461549B068FFF755F9002804D12246FC
:103D40001149F068FFF7D0F900200D490880601C88
:103D500084B20B4800888442AEDB09480088012108
:103D60004902884202D1002005490880204605B05A
:103D7000F0BD0000602300207207002070070020C3
:103D800074070020442000205C240020F8B504467D
:103D90000F460025002600BF5420005D012801D1F8
:103DA0000220F8BD01215420015500BF2068806821
:103DB0008007800F012806D120680068084000288D
:103DC00001D0012000E0002000282FD1A06DFF21AC
:103DD0000131884302210843A06520688068890773
:103DE00008432168886001F0F3FA064611E001F00B
:103DF000EFFA801B0A280CD9A06D022188431021FC
:103E00000843A06500BF00215420015500BF0120D8
:103E1000C7E720688068C00FC0070028E7D1A06D01
:103E20000221884301210843A06504E0A06D202100
:103E30000843A065012500BF00215420015500BFA3
:103E40002846AEE770B504460D4600BF5420005D1D
:103E5000012801D1022070BD01215420015500BF6D
:103E60002068806804210840800800280AD0A06DDE
:103E700020210843A06500BF00215420015500BF48
:103E80000120E8E73C496868884238D02068806AA9
:103E900029684903490B0843216888622868400360
:103EA000400B3649084001218904884208D1344832
:103EB000806849010843324988600A20FDF780F88C
:103EC00028684003400B2F490840012149048842DB
:103ED00005D12B4880684901084329498860286832
:103EE0004003400B284908400121090488423BD186
:103EF00023488068090208432149886034E020682B
:103F0000806A29684903490B8843216888622868C8
:103F10004003400B1949084001218904884205D11A
:103F2000174880684901884315498860286840031C
:103F3000400B1449084001214904884205D110482A
:103F40008068490188430E49886028684003400B17
:103F50000D49084001210904884205D108488068BC
:103F6000090288430649886000BF0021542001559A
:103F700000BF00206FE700000110000000000448AF
:103F800000270140000002440000014010B5044633
:103F9000204600F0FBFA00200149087010BD000027
:103FA000D50600207047000070B504460025002C9F
:103FB00001D1012070BDA06D02210843A0652046FB
:103FC000FCF76EFF0546002D07D12046FDF70EF8E1
:103FD0000546012D01D00120A065012D3ED02068AD
:103FE000406822490840216848602048C043216851
:103FF000086020688068012109078843216888607B
:104000002068C0681A4908402168C86020680069B3
:10401000184908402168086120684069C008C0004C
:10402000216848612068006A1349084021680862D5
:1040300020688030406BC109C9012068803041632D
:1040400020688030406BC109C9012068803041631D
:10405000204600F02FF90020E065A06500BF002198
:104060005420015500BF2846A4E7000060F7FFFF79
:1040700000023E8302FCFF3F00F000F070470000AA
:1040800010B50446002C01D1012010BDA06D002800
:1040900006D1E065002154200155204600F056F974
:1040A000A06D10210840002806D1206880680421F6
:1040B0000840800800280AD0A06D10210843A065A0
:1040C00000BF00215420015500BF0120DDE7A06D95
:1040D000FF210131884302210843A06520688068E0
:1040E0008007800F012807D120680068C007C00F33
:1040F000002801D0012000E0002000283AD100BFB4
:10410000032189076069884207D049426069884273
:1041100003D04900606988420CD1206800698000A2
:104120008008216808612068006961690843216886
:10413000086112E020680069800080082168086139
:10414000594880680F218904884357498860084688
:104150008068616908435449886000BF2068C0686E
:10416000182188432168C8602068C068A169084395
:104170002168C8604C4880680121490688434A4943
:10418000886008468068A16C4906084346498860F3
:1041900020688068012109070840002804D12068B0
:1041A00080680843216888602068C0683F490840EB
:1041B0002168C860216A606A022901D1042100E0F7
:1041C00000210843A16A49030843A16B4900084341
:1041D000216C0843616C89030843E16CC9030843FF
:1041E0002168C96808432168C860FF21C231206B7B
:1041F000884207D0616B206B08432168C968084377
:104200002168C860E06A012812D1A06A002807D19D
:104210002068C0680121090408432168C86007E0DC
:10422000A06D20210843A065E06D01210843E065F1
:104230006068012816D1206800691D49084021687E
:104240000861A168E0680843216908432168096999
:10425000084321680861206800690121084321683A
:1042600008610BE020680069C007C00F002805D076
:1042700020680069400840002168086120684069A2
:10428000C008C0002168486120684069E1690843AE
:10429000216848610020E065A06D0221884301216A
:1042A0000843A0650020F0E6002701401902FEFF48
:1042B00003FCFF7F10B504462048406A01214902F3
:1042C00008431E4948620846406A491588431B490D
:1042D00048621B490868FDF739F9002804D101211B
:1042E0000520000700F0ACFE15494868FDF72EF9DF
:1042F000002803D10121134800F0A2FE104988686C
:10430000FDF724F9002803D102210E4800F098FEA1
:104310000B49C868FDF71AF9002803D101210A48A2
:1043200000F08EFE06490869FDF710F9002803D158
:104330000221054800F084FE10BD0000001002407C
:104340008CCC0108000400500008005010B586B065
:10435000044600BF5748C06A012108435549C86256
:104360000846C06AC007C00F009000BF00BF00BF72
:104370000846C06A022108434E49C8620846C06A1E
:1043800002210840009000BF00BF00BF4948C06A3A
:10439000042108434749C8620846C06A042108400E
:1043A000009000BF00BF4348406BC901084341492A
:1043B000486300BF0846006B012108433D4908637C
:1043C0000846006BC007C00F009000BF00BF03206D
:1043D00002900020039038490868FDF7B7F80028DC
:1043E00006D10120019001A90520000700F0E4FE9C
:1043F00031494868FDF7AAF8002805D1012001904D
:1044000001A92E4800F0D8FE2B498868FDF79EF8D8
:10441000002805D10220019001A9284800F0CCFE17
:104420002549C868FDF792F8002805D101200190C0
:1044300001A9234800F0C0FE1F490869FDF786F86E
:10444000002805D10220019001A91D4800F0B4FE0A
:1044500019494869FDF77AF8002801D100BF00BF6B
:10446000184819490860002117488160C1608021FF
:10447000016149004161890081612021C161C90157
:104480000162002010494860084600F085F90E4896
:1044900000F05EFC00BF0C482065846200BF002273
:1044A0000121092000F0E0FF092000F0D1FF06B053
:1044B00010BD0000001002408CCC01080004005028
:1044C000000800500800024054170020F8B50446C8
:1044D0000D461646002720688068042108408008A1
:1044E000002848D100BF5420005D012801D10220DE
:1044F000F8BD01215420015500BFE06C012803D014
:104500002046FCF7C1FD0746002F35D1A06D1B49A1
:104510000840FF2101310843A0650020E06500BF8D
:1045200000215420015500BF1548216DC86215486F
:10453000216D08631448216D48631C2021680860C0
:104540002068406810210843216848602068C068DE
:10455000012108432168C860226811464031334672
:104560002A46206D00F0BCFC2068806804210843C6
:104570002168886000E002273846B9E7FEF1FFFFB6
:104580000D0F0008B10F0008930F000870B5044626
:10459000002500BF5420005D012801D1022070BD1C
:1045A00001215420015500BF2046FCF779FC054647
:1045B000002D28D12068C068400840002168C860EC
:1045C000206D00F0B7F80546002D03D0A06D402106
:1045D0000843A0652068406810218843216848602E
:1045E000002D04D12046FCF701FD054602E02046DF
:1045F000FCF7FCFC002D06D1A06DFF2101318843A2
:1046000001210843A06500BF00215420015500BFCF
:104610002846C4E730B503460C461F2100BF0120E1
:1046200088402040002803D10846491E0028F6D1C2
:10463000002A14D0082A0DD0102A06D0182A0FD12B
:10464000072901D3012030BD0BE0082901D3012047
:10465000F9E706E0102901D30120F4E701E000E0CA
:1046600000BF00BF18684461186880681825A84317
:1046700010431D68A8600020E5E7000010B504465F
:10468000002C01D1012010BD607F002803D12077CC
:10469000204600F039F8022060772079002809D1FF
:1046A000184821684861206880681821884321687B
:1046B000886008E02046E268A168FFF7ABFF0028A9
:1046C00001D00120DFE76079002803D1401E216876
:1046D000086102E021682069086120688068602123
:1046E0008843616908432168886020688068802168
:1046F0008843A16908432168886001206077002011
:10470000C1E70000B71DC1047047000003484068BE
:1047100004210843014948607047000000580140E7
:10472000034840680221084301494860704700007F
:104730000058014070B50446002520680068400814
:1047400040002168086000F043FE054614E000F0D8
:104750003FFE401B7D21C90088420DD9A06B20215E
:104760000843A06300BF00212420015500BF03219E
:1047700025200155032070BD20680068C007C00FC8
:104780000028E4D100BF00212420015500BF0121F1
:10479000252001550020EEE70146002901D1012026
:1047A00070472520405C022801D10120F8E7086805
:1047B0000068400840000A68106000200A68106025
:1047C0000A6850600A6890600A68D060984A086871
:1047D000904201D1012026E0954A143208689042A7
:1047E00001D110201FE0924A28320868904201D17E
:1047F000801518E08E4A3C320868904201D180143E
:1048000011E08B4A50320868904202D10120000426
:1048100009E0874A64320868904202D1012000050D
:1048200001E001200006824A083A5060804A086888
:10483000904201D1022027E07D4A1432086890425C
:1048400001D1202020E07A4A28320868904201D124
:10485000401519E0764A3C320868904202D10120A6
:10486000400311E0724A50320868904202D10120A0
:10487000400409E06E4A64320868904202D1012087
:10488000400501E001204006694A083A5060684A44
:104890000868904201D1082027E0654A1432086870
:1048A000904201D1802020E0614A2832086890427D
:1048B00001D1C01419E05E4A3C320868904202D12E
:1048C0000120C00311E05A4A50320868904202D1D8
:1048D0000120C00409E0564A64320868904202D1BF
:1048E0000120C00501E00120C006514A083A50608D
:1048F0004F4A0868904201D1042027E04C4A143204
:104900000868904201D1402020E0494A28320868D6
:10491000904201D1001519E0454A3C3208689042A6
:1049200002D10120800311E0414A503208689042D0
:1049300002D10120800409E03D4A643208689042B7
:1049400002D10120800501E001208006384A083AA2
:104950005060374A0868904208D135487830806AFC
:1049600000090001324A7832906255E0304A143230
:104970000868904208D12E487830806AF02290432F
:104980002B4A7832906247E0294A283208689042E0
:1049900009D127487830806A0F2212029043244AB6
:1049A0007832906238E0224A3C320868904209D15D
:1049B0001F487830806A0F22120390431C4A7832D5
:1049C000906229E01A4A50320868904209D118488A
:1049D0007830806A0F2212049043154A7832906230
:1049E0001AE0134A64320868904209D110487830BE
:1049F000806A0F22120590430D4A783290620BE0D4
:104A00000B4A78320868904206D1806A0F2212065B
:104A10009043074A78329062002088630022252064
:104A2000425400BF2420425400BF0020B8E60000DA
:104A30000800024010B50446C4480068C34A083262
:104A40002168914201D1082127E0C04A1C32216827
:104A5000914201D1802120E0BC4A3032216891424C
:104A600001D1C91419E0B94A44322168914202D1F6
:104A70000121C90311E0B54A58322168914202D19F
:104A80000121C90409E0B14A6C322168914202D186
:104A90000121C90501E00121C906084000284DD0C7
:104AA0002068006808210840002847D02068006876
:104AB000884321680860A54908312068884201D1EF
:104AC000082027E0A1491C312068884201D18020BC
:104AD00020E09E4930312068884201D1C01419E09D
:104AE0009A4944312068884202D10120C00311E074
:104AF000964958312068884202D10120C00409E05B
:104B000092496C312068884202D10120C00501E041
:104B10000120C0068D494860A06B01210843A063B5
:104B200004212520015500BF00212420015500BF8C
:104B3000606B002802D02046616B8847834800687C
:104B4000824A08322168914201D1042127E07F4A3C
:104B50001C322168914201D1402120E07B4A303251
:104B60002168914201D1091519E0784A443221683F
:104B7000914202D10121890311E0744A583221681F
:104B8000914202D10121890409E0704A6C32216806
:104B9000914202D10121890501E0012189060840E5
:104BA00000284BD02068006804210840002845D028
:104BB0002068006820210840002805D1206800688E
:104BC00004218843216808606049083120688842D0
:104BD00001D1042027E05D491C312068884201D1C1
:104BE000402020E0594930312068884201D1001529
:104BF00019E0564944312068884202D101208003DF
:104C000011E0524958312068884202D101208004C5
:104C100009E04E496C312068884202D101208005AC
:104C200001E0012080064949486005212520015501
:104C3000206B002802D02046216B8847434800683B
:104C4000424A08322168914201D1022127E03F4ABD
:104C50001C322168914201D1202120E03B4A3032B0
:104C60002168914201D1491519E0384A443221683E
:104C7000914202D10121490311E0344A583221689E
:104C8000914202D10121490409E0304A6C32216885
:104C9000914202D10121490501E001214906084064
:104CA000002852D0206800680221084000284CD01B
:104CB0002068006820210840002805D1206800688D
:104CC0000221884321680860204908312068884211
:104CD00001D1022027E01D491C312068884201D102
:104CE000202020E0194930312068884201D1401548
:104CF00019E0164944312068884202D1012040035E
:104D000011E0124958312068884202D10120400444
:104D100009E00E496C312068884202D1012040052B
:104D200001E00120400609494860A06BA063012111
:104D30002520015500BF00212420015500BFE06A55
:104D4000002802D02046E16A884710BD00000240DA
:104D500001460022002901D1012070472520405C36
:104D6000002802D100232420435402232520435449
:104D70000868026858480240CB68886818430B6985
:104D800018434B6918438B691843CB6918430B6A66
:104D90001843024308680260504B086898420FD1DC
:104DA0004E487830806A000900014C4B7833986295
:104DB0001846806A4B681843484B7833986285E000
:104DC000464B14330868984210D144487830806AC2
:104DD000F0239843414B783398621846806A4B68B9
:104DE0001B0118433D4B783398626FE03B4B2833EF
:104DF0000868984211D139487830806A0F231B0225
:104E00009843364B783398621846806A4B681B0289
:104E10001843324B7833986258E0304B3C33086883
:104E2000984211D12D487830806A0F231B03984394
:104E30002A4B783398621846806A4B681B031843E4
:104E4000264B7833986241E0244B503308689842EF
:104E500011D122487830806A0F231B0498431F4BDE
:104E6000783398621846806A8B881B0418431B4B62
:104E7000783398622AE0194B64330868984211D15C
:104E800016487830806A0F231B059843134B7833FC
:104E900098621846806A8B881B0518430F4B78333D
:104EA000986213E00D4B7833086898420ED1806AFF
:104EB0000F231B069843094B783398621846806A83
:104EC0000B791B061843054B783398620123252084
:104ED0004354002041E700000FC0FFFF08000240DC
:104EE000F8B504460D4616461F4600BF2420005D57
:104EF000012801D10220F8BD01212420015500BF65
:104F000002212520015520680068400840002168E2
:104F100008603B46324629462046FDF72FFE2068B2
:104F200000680221084321680860206800680421A5
:104F30000843216808602068006808210843216848
:104F4000086020680068012108432168086000208B
:104F5000D1E731B5002400F03BFA044600BF00F071
:104F600037FA001B00998842F9D338BD70B5044662
:104F700000250748FDF76EFF0546002D06D10549BF
:104F8000486120600248FDF765FF0546284670BD70
:104F900050C30000902600200348406801210843C8
:104FA000014948600020704700200240F8B50446DF
:104FB0000D461646012700BF1448007C012801D188
:104FC0000220F8BD01201149087400BF1048FDF708
:104FD00041FF0746002F12D10C494861022C01D134
:104FE0002E6008E0012C01D12E8004E0002C01D1BC
:104FF0002E7000E001270648FDF72CFF074600BF92
:1050000000200249087400BF3846DAE790260020E5
:1050100050C3000007484068C007C00F002806D0F2
:1050200005480449C8600548C86000207047012051
:10503000FCE7000000200240EFCDAB89050403022D
:10504000F0B50B4600210022002479E001258D40B7
:105050001D402A46002A72D005684F000326BE4034
:10506000B5430560CD08AE0005462035AD594E0765
:10507000F70E0F26BE40B543CE08B60007462037D0
:10508000BD5185684F000326BE40B5438560456825
:1050900001268E40B5434560C5684F000326BE40DB
:1050A000B543C560294D8E08B600AC598D072E0F4B
:1050B0000F25B5402C4005252D07A84201D100251C
:1050C00019E0234DA84201D1012514E0214DA84249
:1050D00001D102250FE0204DA84201D103250AE0AD
:1050E0001E4DA84201D1042505E01D4DA84201D165
:1050F000052500E006258E07360FB540A5421ED1D6
:105100008D072E0F0F25B5402C46104D8E08B6008A
:10511000AD59A5430D4E8F08BF00F551114D2D68B7
:105120009543104E356035466D689543756035463C
:10513000AD689543B5603546ED689543F560491C0B
:105140001D46CD40002D81D1F0BD0000080001407A
:105150000004005000080050000C005000100050E7
:10516000001C00500004014070B504460025002CCE
:1051700005DD02E06410681CC5B2012CFAD1A8005C
:1051800004490858002803D0A900024A5058804713
:1051900070BD0000581E002010B504460548406947
:1051A0002040002804D0034844612046FFF7DCFF7C
:1051B00010BD00000004014070B503460022002429
:1051C0000020DFE0012696400D6835402C46002C7B
:1051D00077D04D68022D02D04D68122D15D1D5081B
:1051E000AE001D462035A8595507EE0E0F25B540D7
:1051F0000646AE4330465607F60E0D69B5402843C5
:10520000D508AD001E46203670514D68012D08D0DE
:105210004D68022D05D04D68112D02D04D68122D1C
:1052200018D1986856000325B5400646AE4330466F
:105230005600CD68B54028439860586801259540D0
:105240000646AE43304610264D6835402D09954040
:1052500028435860186856000325B5400646AE43FB
:1052600030460D79AD07AD0F5600B54028431860A4
:10527000D86856000325B5400646AE433046560072
:105280008D68B5402843D860012636074D68354003
:10529000B54276D13E4D6D6B012635433C4E75636C
:1052A0003C4D9608B600A85995072E0F0F25B5401E
:1052B0000646AE43304605252D07AB4202D10025F8
:1052C0001AE05EE0344DAB4201D1012514E0334DCC
:1052D000AB4201D102250FE0314DAB4201D1032594
:1052E0000AE0304DAB4201D1042505E02E4DAB4222
:1052F00001D1052500E006259607360FB540284365
:10530000244D9608B600A851284D28680546A543A7
:105310002846012636044D683540B54202D105467F
:1053200025432846214D286068680546A543284640
:10533000012676044D683540B54202D10546254325
:1053400028461A4D6860A8680546A54328460126E8
:1053500036054D683540B54202D1054625432846FD
:10536000124DA860E8680546A54328460126760543
:105370004D683540B54202D10546254328460B4DC0
:10538000E860521C0D68D540002D00D01AE770BDB2
:1053900000100240080001400004005000080050C6
:1053A000000C005000100050001C00500004014090
:1053B000024613690B40002B01D0012000E00020C1
:1053C0007047002A01D0816100E0816270470000CF
:1053D000014800687047000080070020024800680C
:1053E000401C0149086070478007002010B506483E
:1053F00000684021084304490860002000F006F8D6
:1054000000F018F8002010BD0020024070B50446DE
:105410007D21C90006480068FAF76AFE054601F0DA
:10542000EDFB00222146501E00F01EF8002070BD4A
:105430007C0700207047000000BFC206D20E012189
:105440009140024A116000BF7047000080E100E017
:1054500000BFC206D20E01219140024A116000BF76
:105460007047000000E100E070B504460D461646A6
:105470002946204602F0C8FF70BD000003480068BE
:10548000012149020843014908607047007000404B
:1054900003480068102188430149086070470000F4
:1054A0000070004010B5024600200E4B18688008BE
:1054B00080000346134318460A4B18600A4B1B69C9
:1054C00004242343084C2361012901D130BF02E0A9
:1054D00040BF20BF20BF044B1B690424A343024CE0
:1054E000236110BD0070004000ED00E070B504467F
:1054F00000250026202120680840202804D08901AA
:1055000020680840884277D1914800680321090546
:10551000084003221205A1691140884207D18C4836
:10552000006811460840E169114088420ED003210D
:105530000904A0690840884208D185480068012113
:1055400049040840002801D0012070BD8048806BCC
:105550000121090708437E4988637E480068891550
:1055600008437C490860FFF733FF054606E0FFF774
:105570002FFF401B642801D90320E6E77548006827
:10558000FF21013108400028F1D071484030006906
:1055900003210904084003221204A1691140884232
:1055A00008D16B484030006911460840E16911405C
:1055B00088425CD066484030006903210904884372
:1055C00006466348403000690121C9040843604928
:1055D00040310861084600690121C90488435C49DB
:1055E000403108610846066140153040002815D05A
:1055F000FFF7EEFE054608E039E0FFF7E9FE401B45
:105600005549884201D903209FE75148403000693D
:10561000012149020840400A0028EED000BF0321C2
:105620000904A069084088420BD149480068090173
:10563000884303221205A1691140084344490860C8
:1056400006E0434800680321090588434049086093
:105650003F484030006903210904884303221204B3
:10566000A169114008433A494031086100BF2078E0
:10567000C007C00F002809D035484030C0688008F6
:1056800080006168084332494031C86002212068C7
:105690000840022809D12E484030C0680C218843B8
:1056A000A16808432A494031C860042120680840A5
:1056B00004280AD126484030C06803218902884363
:1056C000E168084322494031C86008212068084049
:1056D00008280AD11E484030C068032109038843C6
:1056E000216908431A494031C860FF21013120680F
:1056F000084088420AD116484030C0680321090496
:1057000088436169084312494031C86040212068DC
:105710000840402809D10E484030C0680905884338
:10572000216A08430A494031C86080212068084046
:1057300080280AD106484030C06803218904884384
:10574000616A084302494031C8600020FDE600005C
:1057500000100240007000408813000070B504463D
:105760000D46002676480068C007C00FA8420ED23A
:1057700073480068400840002843714908600846A3
:105780000068C007C00FA84201D0012070BD0221EF
:1057900020680840022807D16A48C068F021884381
:1057A000A16808436749C8602078C007C00F002877
:1057B0004CD06068022809D1624800680121490480
:1057C0000840400C002824D10120DFE76068002851
:1057D00009D15C480068012149020840400A0028BC
:1057E00017D10120D2E76068032809D15548006825
:1057F000012149060840400E00280AD10120C5E7D2
:1058000050480068042108408008002801D1012088
:10581000BCE74C48C068800880006168084349497B
:10582000C860FFF7D5FD0646606802280FD107E083
:10583000FFF7CEFD801B4449884201D90320A5E72C
:105840004048C0680C2108400828F1D134E0606865
:1058500003280FD107E0FFF7BBFD801B3A498842C0
:1058600001D9032092E73748C0680C2108400C2872
:10587000F1D121E0606800280FD107E0FFF7A8FD13
:10588000801B3149884201D903207FE72D48C06839
:105890000C2108400028F1D10EE007E0FFF798FD49
:1058A000801B2949884201D903206FE72548C06839
:1058B0000C2108400428F1D121480068C007C00F1E
:1058C000A8420ED31E4800684008400028431C49E7
:1058D000086008460068C007C00FA84201D0012038
:1058E00054E7042120680840042808D11548C068FE
:1058F000072109028843E16808431249C86008216A
:1059000020680840082809D10E48C0680721C9024C
:1059100088432169C90008430A49C86000F044F877
:105920000849C968F02211400909084A515CC84079
:10593000074908600020FFF769FD002026E7000006
:1059400000200240001002408813000014CD01081E
:105950007C07002001480068704700007C07002099
:1059600000B5FFF7F7FF0549C96807221202114089
:10597000090A034A515CC84000BD00000010024003
:1059800024CD010800B5FFF7E5FF0549C9680722E6
:10599000D2021140C90A034A515CC84000BD000050
:1059A0000010024024CD0108F8B500240026002094
:1059B000009000270025324840680721490308402D
:1059C000470B2F48C0680C210840002806D0042847
:1059D00009D0082811D00C2849D110E0781C0121E9
:1059E0008140CD0348E02648006810210840002887
:1059F00001D0244D00E0244D3EE0244D3CE0204801
:105A0000C0680F218904084004461D48C06803216E
:105A1000890508400646A00C1D490C5CB00D461CCB
:105A20001748C06801210904084000900098002828
:105A300015D11348006810210840002807D01149EB
:105A4000614308463146FAF753FB05460EE00E491E
:105A5000614308463146FAF74BFB054606E00B4921
:105A6000614308463146FAF743FB054604E0781CDB
:105A700001218140CD0300BF00BF2846F8BD0000D2
:105A80000010024000093D000024F40000366E01C1
:105A90002CCD0108F8B5044600252078C007C00FBA
:105AA000002870D0FD48C0680C21084008280BD0A1
:105AB000FA48C06808400C2813D1F848C068012192
:105AC0000904084088420CD1F448006801214904C7
:105AD0000840400C00286AD06068002867D1012087
