:020000040800F2
:10000000084D0020D5000008C1870008DF00000867
:1000100000000000000000000000000000000000E0
:10002000000000000000000000000000E1000008E7
:100030000000000000000000E3000008B1F200082A
:10004000E7000008E700000869B40008E7000008BE
:10005000E7000008E92D0008FD2D0008112E00081A
:10006000E7000008ED2B0008FD2B00080D2C000810
:10007000E7000008E7000008E700000871F4000846
:10008000E7000008E7000008E700000800000000A3
:10009000E7000008E7000008E7000008E7000008A4
:1000A000E7000008E7000008E70000081104010865
:1000B00021040108E7000008E7000008E700000845
:1000C0000348854600F0F8FD00480047997C010888
:1000D000084D00200448804704480047FEE7FEE73B
:1000E000FEE7FEE7FEE7FEE709F40008C1000008AE
:1000F00030B50B46014600202022012409E00D46C0
:10010000D5409D4205D31D469540491B2546954047
:1001100040191546521E002DF1DC30BD70B500248B
:100120002546002801DA01244042002901DA012590
:100130004942FFF7DDFFAC4200D04042002C00D026
:10014000494270BDF0B51FB40646002082B0054696
:100150004024019100901BE0019922460F46304651
:1001600000F00CFC049A059B801A994110D31046AC
:100170001946224600F0F2FB361A8F4101972246BB
:1001800001200021009F00F0E9FB38184D4100904C
:100190002046641E0028DFDC019B00982946324679
:1001A00007B0F0BD03460B439B0703D009E008C925
:1001B000121F08C0042AFAD203E00B780370401C17
:1001C000491C521EF9D27047D2B201E00270401CA5
:1001D000491EFBD270470022F6E710B513460A46C7
:1001E00004461946FFF7F0FF204610BD421E537823
:1001F000521C002BFBD10B781370491C521C002B96
:10020000F9D1704730B505462A460B4610781C7860
:10021000521C5B1C002801D0A042F7D0002C03D058
:10022000002802D06D1CEFE7284630BD421C017843
:10023000401C0029FBD1801A704703460A780270DF
:10024000401C491C002AF9D11846704730B50546B4
:100250000020034600E05B1C934205D2EC5CC85CC6
:10026000201A01D1002CF6D130BD000070B5104D20
:10027000002800D12868002414E00A4602E09E42CB
:1002800003D0521C1378002BF9D1DAB2224307D0E5
:10029000002B06D0002C04D000210170401C04E08B
:1002A0000446401C0678002EE7D12860204670BD29
:1002B0009C0A0020F7B5009C0F4600262578641C98
:1002C000002D05D000F07EFB0068405DC007F5D131
:1002D0002B2D02D02D2D18D0641E39462046029AAF
:1002E00000F074FB002F04D03968A14201D10099BD
:1002F00039607105022400290BDA4042002803DD31
:1003000010F098FC0460A007FEBD012080020643A7
:10031000E3E70028F8DA10F08DFC04600048FEBD29
:10032000FFFFFF7FF7B582B00F460026029C10F05A
:1003300081FC0090006801902578641C002D05D098
:1003400000F040FB0068405DC007F5D12B2D02D0C6
:100350002D2D1CD0641E00980021016039462046D6
:10036000049A00F033FB0146002F04D03868A04205
:1003700001D1029838600098006802280BD00098DC
:10038000019A0260700506D5484205B0F0BD012013
:1003900080020643DFE70846F7E770B5064610F02F
:1003A00049FC046805460A2200213046FFF782FF17
:1003B0002C6070BD70B5064610F03CFC0468054624
:1003C0000A220021304600F054FB2C6070BDF8B5C5
:1003D00002464A40D40F42004B0052085B089A4242
:1003E00002D20246084611464A0023D0C30D4A00F5
:1003F000DDB2120EAD1A202D35DA49020126490A66
:10040000F6058A19002C00D0524220214F1B1146BC
:10041000B9402A411018C20D9A4221D0002C17D0A1
:10042000012D08DCDA05801AD20F8019D207DBB261
:1004300000F06CFBF8BDDA05801A012340001B06B2
:10044000C01880185A428018CA0F1043490007E0AC
:100450004908C2071143DA05801A8019400880183C
:1004600000F04CFBF8BD61000122511A001BF7E7B8
:100470000122D2075140AAE70122D2075040A6E745
:10048000F0B507460846584087B0C00F04904800B2
:100490000E46590040084908BC1A884105D2384622
:1004A00031461E4617460B46024658004008104388
:1004B0004CD0300D039040055900400D490D05907A
:1004C000401A0290402872DA18030121000B090536
:1004D0000843019004980092002805D001995242E7
:1004E0000020884100920190029840210A1A019947
:1004F000009800F033FA05460C466B4607CB00F037
:100500004EFAC0197141039A0E0D0023D7175640B9
:100510001A467A40164344D0049A002A2DD0029AF3
:10052000012A039A15DC1205C01A914101263605ED
:10053000001C7141D20F059ED207009301920296D2
:100540002A46234600F028FB07B0F0BD3846314666
:10055000FAE71605224A0F46B218C01AB741012120
:100560000905001C4F4100187F41114618187941B8
:10057000E20F10436D19644113E0E2076D08154363
:100580006408C2071443039A01261205C01A914158
:100590003605001C7141CE07400830434908C01899
:1005A00051412A46234600F0EAFACDE7FFE70498D6
:1005B00001224000C117121A00238B4104983146D2
:1005C000C417381AA141EEE730B40124E4076340B0
:1005D00030BC55E730B40124E407614030BC4FE73C
:1005E0000000E0FFF0B51FB488B00B990998002413
:1005F00048400999C00F490049080991C0070B9963
:100600000090490049080B9109990898A6460843AB
:100610001CD00B990A98084318D00998012440006F
:10062000420D4800410D099824050003000B2043AA
:1006300009900B980003000B20430B9050181C49A5
:100640004018002201901446104605E000200146A3
:100650000DB0F0BD032801DA034600E003239C46F9
:10066000C11A0AAE0AE05F0008ADED5B4F00F75B10
:100670007D430027AA187C41491C5B1E6145F2DDC1
:10068000410004AB5A522104120C0A43240C401CB2
:100690000828DFDB019802900099704601910090D4
:1006A000059B049A0799069800F076FAD0E70000B7
:1006B0000DFCFFFFF0B50C465C4085B0E40FE4078D
:1006C00003944C00002664085900944649080246E9
:1006D0000296224321D062460A431ED06200570D83
:1006E0004A000E032303550D012402462C4924051C
:1006F000781B1B0B360B40182343264361460090A2
:100700001C46501AB44103D30098401C009002E0EC
:10071000921800985B41002803DA0020014605B0DA
:10072000F0BD0020012109050746864611E0644618
:100730001D46141BB54106D36546521BB341744692
:1007400007430C43A646CD074008490828439218A2
:100750005B4105460D43EAD11046184313D060466D
:10076000194650407140084306D06046101AB34104
:1007700006D20122002306E000220123DB0702E06B
:100780000122D2435310009874460105381C614180
:10079000029C039D0019694100F0F1F9BFE70000D8
:1007A000FD03000010B500229623114600F0AEF9BB
:1007B00010BD00000EB5C217C10F5040CA07401847
:1007C0000021054B0293019200910A460B4600F06E
:1007D000E3F903B000BD0000330400000EB5054985
:1007E0000291002100910A460B46019100F0D4F9D4
:1007F00003B000BD330400000EB5054A029200228A
:1008000000921346019200F0C7F903B000BD00004A
:1008100033040000410040020122400AD205090EC3
:1008200080187F2901DA00207047962903DC962280
:10083000511AC840704796398840704770B5CD0F3F
:100840004A0009030123090B1B0519430B4BED0754
:100850000024520D9A4201DA002070BD074B343358
:100860009A4203DC9A1A00F089F802E00449511810
:1008700088402C43F1D0404270BD0000FF030000CF
:10088000CDFBFFFF4A0009030123090B1B05194398
:10089000094B10B5520D9A4201DA002010BD064BEB
:1008A00034339A4203DC9A1A00F068F810BD034909
:1008B0005118884010BD0000FF030000CDFBFFFF72
:1008C00010B5002904DB0124E40740428C41214695
:1008D000002B04DB1C460123DB075242A3418B4261
:1008E00000D1824210BD000010B5002904DB0124B4
:1008F000E40740428C412146002B04DB1C460123C7
:10090000DB075242A341994200D1904210BD000042
:10091000CB0FDB07490010B5490802460A4307D050
:100920000A0D07240903E401090B121B002A01DC4C
:10093000002010BDC900440F0C43C100E018D205CF
:10094000801800F0DBF810BD0122D207002800DB80
:10095000101A002900DB511A8142704710B5202A75
:1009600004DB0146203A9140002010BD9140202335
:100970009C1A0346E3401943904010BD10B5202A4D
:1009800004DB0846203AD040002110BD0B46D3407E
:10099000D0402024A21A91400843194610BD10B53A
:1009A000202A06DBCB170846203A1041C1170B431B
:1009B00006E00B461341D0402024A21A9140084380
:1009C000194610BD0048704754E30108F7B582B0DE
:1009D000029C00272078641C15460197302802D01D
:1009E000002D15D015E020780127641C782804D04C
:1009F000582802D0002D09D00BE0002D01D0102D79
:100A000007D1002710252078641C02E0082500E0AB
:100A10000A250026009610E000990127694308186E
:100A2000020C294680B2714300908E183804864229
:100A300001D3012001902078641C294600F04EF972
:100A40000028E9DA0398002805D0002F01D0641EA1
:100A500000E0029C04600198002806D010F0EAF83B
:100A600002210160C81E05B0F0BD009930040843A2
:100A7000F9E7F7B5009C0E4600252778641C002F87
:100A800005D0FFF79FFF0068C05DC007F5D12B2F91
:100A900002D02D2F1ED0641E31462046029A00F04F
:100AA0002CF9002E04D03268A24201D1009A3260A3
:100AB0006A050224002A18DA0022454200268A41EB
:100AC0003346751B934109DB002240428A4111469F
:100AD00003B0F0BD012080020543DDE710F0AAF865
:100AE000046000200121C907F2E70029F0DA10F0C4
:100AF000A1F804600020C0434108E9E7002904DAB6
:100B0000401C490001D140084000704770B40024E7
:100B1000050C05D11024000402D1002921D0112494
:100B2000050E01D100020834050F01D10001241D7A
:100B3000850F01D18000A41C002801DB4000641C4B
:100B4000002908D020252E1B0D46F540A14000D0DD
:100B500001212943084301061B1B000ADB1D02D5A6
:100B6000002070BC7047DB05181880180029F8DADF
:100B7000401C4900F5D170BC40084000704710B5DA
:100B8000002B08DA0024401C614192185B411A4393
:100B900001D14008400010BDF0B51FB482B0054639
:100BA0000C0003D0084610F01FF802E010F01CF80B
:100BB00020300246009021462846FFF7CFFE049BD6
:100BC000059A04460F4618431143084314D01846AB
:100BD00010431BD0009840210A1A18460599FFF7C8
:100BE000CDFE05460E46009A05990498FFF7B6FE1D
:100BF000084305D0012004E02046394607B0F0BD87
:100C00000020C11705430E432C43374300990E982B
:100C10006305401A7905E40A00220C43FD0A0A30F4
:100C200002D500200146E9E70105101969410C9C35
:100C30000D9D00196941FFF7A2FFDFE7F8B50546F2
:100C4000480040080C46284304D06000184A400D74
:100C5000904201DD2846F8BD15493539884210DC3F
:100C600088420BDB290D200308432903014305D0EB
:100C7000E00F1049C00741180020F8BD00200146D0
:100C8000F8BD161A4020821B28462146FFF766FE53
:100C900007460091284621463246FFF76FFE3A4646
:100CA000009BFFF76CFF3246FFF758FEF8BD0000CF
:100CB000330400000000F03F064C0125064E05E01D
:100CC000E36807CC2B430C3C98471034B442F7D36D
:100CD000FFF7FAF90CEE01082CEE01083A2800D2D1
:100CE0003038202302469A43412A01D31046373830
:100CF000884201D30020C0437047F7B584B0049CFC
:100D000000212078641C154601910291302802D000
:100D1000002D17D017E0012001902078641C78285E
:100D200004D0582802D0002D0AD00CE0002D01D0AC
:100D3000102D08D10020019010252078641C02E0BD
:100D4000082500E00A250027E9173E460097039191
:100D50001CE0012101910099334669430A18009271
:100D600028463A46039900F033F8009A130C002203
:100D7000C7185141009A0E4690B20090012000041D
:100D8000814201D3012002902078641C2946FFF79C
:100D9000A5FF0028DDDA0598002807D00198002873
:100DA00001D0641E00E0049C0598046002980028AD
:100DB00007D00FF03FFF02210160C81E014607B0B7
:100DC000F0BD380C31040143009A38041043F6E7B3
:100DD000F0B51FB486B000200090019002900698F4
:100DE000069980B204900798090C0204001411437C
:100DF00007900027089D099806913E463C460390BF
:100E00000398A9B20204000C039004982D0C15431A
:100E1000484300212246FFF7A1FDC7197141103454
:100E20000E46402CECDB3846029AFFF797FD009AFD
:100E3000019B801800905941029801911030029056
:100E40004028CCDB00980BB0F0BD70B58C1805784D
:100E5000401C6B075B0F01D10378401C2A1106D19F
:100E60000278401C03E006780E70401C491C5B1E93
:100E7000F9D12B0705D40023521E0DD40B70491C49
:100E8000FAE70378401CCB1A921C03E01D780D7022
:100E9000491C5B1C521EF9D5A142D8D3002070BD5D
:100EA00070B5044600252068806804210840800849
:100EB000002829D020688068084000280BD02068CE
:100EC000806802210840002805D120688068102130
:100ED00008432168886004F077FB05460EE004F0C3
:100EE00073FB401B0A2809D9A06D10210843A06597
:100EF000E06D01210843E065012070BD2068806835
:100F0000042108400028EAD10020F6E770B5054624
:100F1000AC6AA06D50210840002835D1A06D012198
:100F200049020843A0652068C0680321890208407F
:100F3000002825D1A06A002822D120680068082155
:100F4000084008281CD120688068042108408008D7
:100F500000280DD1206840680C2188432168486032
:100F6000A06DFF210131884301210843A06507E0FE
:100F7000A06D20210843A065E06D01210843E065D4
:100F8000204603F0FFF803E0206D416B28468847B8
:100F900070BD70B50546AC6AA06D40210843A065E0
:100FA000E06D04210843E065204603F063F970BD5D
:100FB00070B50446A56A284603F0F0F870BD00003D
:100FC00038B50446074908480068FFF791F86043C0
:100FD000009002E00098401E009000980028F9D18F
:100FE00038BD000040420F009807002070B504464D
:100FF0000025206880688007800F012807D12068BD
:101000000068C007C00F002801D0012000E00020C8
:10101000002837D02068806805210840012800D1C9
:1010200000E0002000280AD000BF2068806802216C
:1010300008432168886003202168086009E0A06DEA
:1010400010210843A065E06D01210843E0650120FF
:1010500070BD04F0B9FA05460EE004F0B5FA401B85
:101060000A2809D9A06D10210843A065E06D01216F
:101070000843E0650120EBE720688068C007C00FE7
:101080000028EAD10020E3E770B504460025206877
:1010900080688007800F012807D120680068C0079A
:1010A000C00F002801D0012000E00020002839D125
:1010B000206880681C490840002801D1012000E018
:1010C0000020002809D1A06D10210843A065E06D23
:1010D00001210843E065012070BD2068806801217E
:1010E0000843216888600120FFF76AFF04F06CFA6A
:1010F00005460EE004F068FA401B0A2809D9A06DE5
:1011000010210843A065E06D01210843E06501203E
:10111000E2E720680068C007C00F0121484048404E
:101120000028E7D00020D7E71700008030B589B04D
:1011300005460C461022002105A816F0B7FE2246EF
:1011400005A905A80FF0FFFF6846007D8021084033
:1011500000281CD000BF00200AE005A9095C490056
:1011600005AB421C9A5CD211114305AA1154401CD4
:101170000F28F2DB08A9C97849060A0E08A9CA7027
:1011800000BFC8788721484008A9C87016E000BF92
:1011900000200AE005A9095C490005AB421C9A5CE5
:1011A000D211114305AA1154401C0F28F2DB08A9E3
:1011B000C97849060A0E08A9CA7000BFFF20153079
:1011C000005910280FD100BF002009E0E11DFA31BD
:1011D000095C05AA125C5140E21DFA321154401C10
:1011E0001028F3DB61E06846007D8021084000287C
:1011F0001CD000BF00200AE005A9095C490005AB2E
:10120000421C9A5CD211114305AA1154401C0F28AC
:10121000F2DB08A9C97849060A0E08A9CA7000BFFE
:10122000C8788721484008A9C87016E000BF002090
:101230000AE005A9095C490005AB421C9A5CD21181
:10124000114305AA1154401C0F28F2DB08A9C978E4
:1012500049060A0E08A9CA7000BF8021FF20153078
:101260000259E01DFA30815406E00021FF201530BC
:101270000259E01DFA308154FF2015300059401CFE
:10128000FF21153108511028EFD300BF002009E0DD
:10129000E11DFA31095C05AA125C5140E21DFA32E7
:1012A0001154401C1028F3DB00BF00BF00200AE0EF
:1012B0002146F131095CE21DFA32125C51402246AE
:1012C000F1321154401C1028F2DB00BF10222146DD
:1012D000F13101A816F0D0FD2246294601A80FF0F1
:1012E00032FF1022002105A816F0E0FD09B030BD44
:1012F00010B50446102200212046F13016F0D6FD2C
:101300000021FF2015300151F022204616F0CEFDBD
:1013100010BD70B504460D462246102128460FF038
:101320003FFF70BDF0B585B004460F461546FF205F
:101330001530005900283ED0FF20153000591021EB
:10134000081AA84204D2FF2015300059081A00E0FC
:1013500028460646B2B2FF2115310959E31DFA337A
:10136000C818394616F088FDFF201530005981193C
:10137000FF20153001510059102801D3B54201D189
:1013800005B0F0BD00BF00200AE02146F131095C44
:10139000E21DFA32125C51402246F1321154401CD7
:1013A0001028F2DB00BF22462146F13108460FF03B
:1013B000CAFEBF19AD1B21E000BF002008E0214696
:1013C000F131095C3A5C51402246F1321154401C23
:1013D0001028F4DB00BF10222146F131684616F0D8
:1013E0004BFD2246694668460FF0ADFE1022694665
:1013F0002046F13016F040FD1037103D102DDBD89F
:10140000AAB23946E01DFA3016F036FDFF2015303D
:10141000055100BFB4E7000010B5044600200349A1
:101420000870204600F070F810BD00003C0A002053
:10143000F8B504460D4616460127094800780028ED
:1014400008D101200649087032462946204600F09E
:10145000FFF80746002F01D10020F8BD0120FCE76E
:101460003C0A0020F8B504460D46002600270F4828
:101470000078002803D00E480078844201DD012066
:10148000F8BD002008E0011949000A4A515A8E1996
:101490007F1C06490978401801190C29F3D33946F5
:1014A0003046FEF725FE28800020E9E7DC06002014
:1014B000D4060020F41800207CB506460C460F48E0
:1014C0000078844201DD01207CBD002510E0A800E9
:1014D0000B490968085800900120000301906946F3
:1014E000304602F0ABFD002801D00120ECE76D1C76
:1014F000A542ECDB034804700020E5E7D406002099
:10150000D8060020DC06002010B50446002C00D1CF
:1015100010BD204602F044FE00200749087007492C
:101520000870074908700749086018210648FEF747
:1015300052FE00BFECE70000DC060020DD060020C4
:10154000D4060020D8060020F418002010B501466B
:1015500001220C480068002801D1104610BD00206F
:1015600008E08300074C2468E3588B4201D1002235
:1015700004E0401C044B1B789842F2DB00BF10468D
:10158000ECE70000D8060020D4060020F0B50246A3
:101590000B460124002013E000210AE08D005D5974
:1015A00086000A4FBE59B54201D1002403E04D1C0C
:1015B000E9B29142F2DB00BF002C00D102E0401CF6
:1015C0000628E9DB00BF2046F0BD0000E4D7010893
:1015D000F8B506460C461546002700200090002E60
:1015E00005D0002D03D017480068002801D1012044
:1015F000F8BD2046FFF7AAFF002801D00120F7E739
:101600001148007800281AD100BF0AE081000D4A75
:1016100012685158A14202D10127009005E0411CF7
:10162000C8B20A4909788842F0DB00BF002F01D117
:101630000120DDE729460098FFF714FFD8E70220D4
:10164000D6E70000D8060020DD060020D4060020E2
:10165000F8B505460E46174600200090002D01D033
:10166000002F01D10120F8BD062E01DD0120FAE78F
:101670002548067039463046FFF788FF002802D11A
:101680002248076001E00120EDE72C462048206059
:10169000204602F085FD002801D00120E3E701216A
:1016A000890761610021A161616201212162042138
:1016B000E1630021E164A16461640121A162002170
:1016C000E162FF21C2312163002161630121A16335
:1016D00009032164002060600721E161204602F0D7
:1016E000CBFD002801D00120BDE70021204602F0FB
:1016F00049FC002801D00120B5E731462046FFF71C
:10170000DBFE00900098AEE7D4060020D80600204B
:101710000024014070B504460025002C01D10120B1
:1017200070BD25460848007800280BD101200649E5
:1017300008700C220549284602F0C4FF002801D099
:101740000120EDE70020EBE7DD060020F418002083
:10175000F7B505460E4600272846FFF7DBFF0CE0ED
:1017600031462846029AFFF733FF0446002C00D189
:10177000FEBD012C01D10120FAE7781C07467D212E
:10178000C9008842ECD30120F2E70000F0B504461E
:101790000D460126944800781623181AC1B2A01EDF
:1017A00003000FF038FA120A3149587090A8B7C6F2
:1017B000EFEFDEEFEF19F0EFEDEF8C4800788842A5
:1017C00009DA8A480078894B1B785B1C874F3B708D
:1017D000874B1C540026FEE0481E844B1B78984221
:1017E00011DD82480078814B1B785B1C7F4F3B707A
:1017F0007F4B1C54384600783B461B785B1C3B7083
:101800007B4B1D540026E6E0481E784B1B7898421F
:1018100011DD76480078754B1B785B1C734F3B706D
:10182000734B1C54384600783B461B785B1C3B705E
:101830006F4B1D540026CEE06C480078884209DAD0
:101840006A480078694B1B785B1C684F3B70684B9B
:101850001C540026BFE0481E644B1B78984211DDE3
:1018600062480078614B1B785B1C604F3B70604B9B
:101870001C54384600783B461B785B1C3B705C4B25
:101880001D540026A7E0881E584B1B78984219DD8E
:1018900056480078554B1B785B1C544F3B70544B9B
:1018A0001C54384600783B461B785B1C3B70504B01
:1018B0001D54384600783B461B785B1C3B704C4BF4
:1018C0001A54002687E0481E484B1B78984211DDC9
:1018D00046480078454B1B785B1C444F3B70444B9B
:1018E0001C54384600783B461B785B1C3B70404BD1
:1018F0001D5400266FE03D480078884209DA3B48D5
:1019000000783A4B1B785B1C384F3B70384B1C54AB
:10191000002660E035480078884209DA33480078CC
:10192000324B1B785B1C314F3B70314B1C540026F3
:1019300051E0481E2D4B1B78984211DD2B48007852
:101940002A4B1B785B1C294F3B70294B1C54384693
:1019500000783B461B785B1C3B70254B1D540026D2
:1019600039E022480078884209DA204800781F4B85
:101970001B785B1C1D4F3B701D4B1C5400262AE03E
:1019800014E000E025E019480078184B1B785B1C38
:10199000164F3B70164B1C54384600783B461B785C
:1019A0005B1C3B70124B1D54002614E00F4800785E
:1019B0000E4B1B785B1C0D4F3B700D4B1C54384677
:1019C00000783B461B785B1C3B70094B1D5400267E
:1019D00001E00220F0BD00BF002E02D10120054B26
:1019E00018703046F6E7000000080020FF070020CE
:1019F000AD2B0020FE07002070B503460C460020EA
:101A0000184D01216956012B29D1174D2E56B1428F
:101A100003D10025154E356021E0144D2D68402D71
:101A200001D9012000E00020104D2D68602D16D94D
:101A30000E4D2D786D1EED06ED0E002D0FD10A4DC9
:101A40000026AE57B14201DD4D1E69B2064D00269B
:101A5000AE57B14203D1012C01D100BF00BF1170BC
:101A600070BD0000DC2B0020A6070020F807002036
:101A700010B504480DF02AFA0BF066F902480EF092
:101A800026FD10BDC8300020A819002001480078AC
:101A900070470000DE0600200448006903494969D8
:101AA00048400249496A4840704700004000F81F1A
:101AB0001949496A090E01701749496A0902090E54
:101AC00041701549898C0904090E81701249898C6D
:101AD000C17011494969090E01710F49496909022B
:101AE000090E41710C49898A0904090E81710A495C
:101AF000097DC17108490969090E01720649096920
:101B00000902090E41720449098A0904090E817209
:101B10000149097CC17270474000F81F10B5FFF7FA
:101B2000BBFF04461AF03EFC0021C943002016F01A
:101B300073FE10BD08B524480078002819D103F0C1
:101B400051FD0DF0BBFB0DF0D3FD00F04FF88722E7
:101B500092001E491E4801F055FA012292021D49C9
:101B60001B480C3001F04EFA00F07AF800F072F8E1
:101B700003E000F03BF80DF001FC17481D231E2286
:101B80001F21009015480DF051FA0BF027F900BF06
:101B90001348C06A802108431149C8620846C06AD8
:101BA00080210840009000BF00BF0748007800284F
:101BB00008D101200449087001F036FC012801D148
:101BC00000F066F908BD0000DF060020E0190020E3
:101BD000C4190020FC1B0020FFFF0000C8300020BB
:101BE0000010024010B512F09DFB10BD10B50C485E
:101BF00004684B20C001844209D04000844206D0D2
:101C0000E1200002844202D04000844203D12046F9
:101C100000F008F803E0E120400200F003F810BDF6
:101C2000000A08083EB504460020094948700A2306
:101C30000922002106480EF07DFC00200090019052
:101C4000034622460221029001480EF027FC3EBDC9
:101C5000A819002010B502F05FFE02F053FE10BD7F
:101C600008B500BF1548006B01210903084313495B
:101C700008630846006B89140840009000BF00BF4D
:101C80000F4810490860012008710F490D48816014
:101C90000821C1600121417100210161416181611F
:101CA000012008490862084602F0E4FD002804D03B
:101CB00006A00EF05BFE00BFFEE708BD001002406C
:101CC0000030024054280020211000000A0D3E3E42
:101CD0002043524320696E6974206572726F7200EE
:101CE000F8B504460C2060433D49401840790C216A
:101CF00048433C490D5A002600273B4800780028FD
:101D00000DD109F005FE0646B54201DD284600E08A
:101D10003046054635480068002800D00127344881
:101D20000078012810D13148006868432F490968BC
:101D3000411A0C2060432A4A801840790C225043F3
:101D4000284A801881600AE000210C206043244A60
:101D5000801840790C225043224A80188160012F5C
:101D600021D10C2262431E4BD21852790C235A43C4
:101D70001C4BD21892681F4BD1180C226243184B8F
:101D8000D21852790C235A43164BD218906816F089
:101D900043FD0C216143124A891849790C225143B1
:101DA000104A8918886014480068002805D0134834
:101DB000006811490968884210D00C480068104931
:101DC0000988484309490968401A0E4909684018BA
:101DD0000C4908600848006808490860F8BD000020
:101DE0000009002040080020EE070020E80900203C
:101DF000CC09002010270000C4090020F4090020AD
:101E0000C2090020C809002010B516480078012832
:101E100027D115480078002823DD7D210902002004
:101E200016F0FAFC014611480278012090407D220C
:101E30001202504308180E4908600E4800680968ED
:101E400040180C490860084801780BA00EF08EFD80
:101E500005480078002804DD03480078401E024948
:101E6000087010BDDD070020D9070020D007002032
:101E7000D4070020C80900200A0D3E3E206A6F6981
:101E80006E206279206F746161202825642900002A
:101E900010B50C480078002812D10B490B480DF002
:101EA0007DFC7D21C90009480DF05EFD07480DF05D
:101EB00065FD01E00DF01AFD024800780028F9D018
:101EC00010BD0000E00600200D890008FC1F002066
:101ED0003EB504201D49087011F004F8002833D0E5
:101EE000012069460870684605F0DAFE0446002CB9
:101EF00004D168460079012800D03EBD042168461F
:101F00000170134800680190684605F063FF0521E1
:101F1000684601700F480190684605F05BFF062196
:101F2000684601700C480190684605F053FF012097
:101F30000A4908700A480078002802D102200349A3
:101F4000087001200749087000BFD6E76B00002029
:101F5000540000202000002030000020510000200C
:101F6000F007002068000020FFB5002100245EE09B
:101F7000002055E065002F4E755B012686403540F8
:101F8000002D4AD00D180C2675432B4E7559002D87
:101F900000D143E0294D2D78002D07D10125854042
:101FA000274E36883540002D00D137E00D180C261D
:101FB0007543214EAD192D792D072D17214E01277F
:101FC000F757BD420DDC012575570E180C277E43CF
:101FD000194FF6190427F7573E11B54201DC0125C8
:101FE00000E00025002D00D118E00D180C267543E7
:101FF000114EAD196D790C267543134EAD19AD68B0
:10200000002D03D01D786D1C1D7007E00D18EEB279
:1020100017787D1C1570019DEE5500BF451CE8B278
:102020001028A7DB08461030C1B2601CC4B21029CA
:102030009EDBFFBD3E08002000090020EE070020C7
:10204000A4070020DC2B002040080020014608489F
:10205000007801280AD108782D2807D148782D2842
:1020600004D188783E2801D1012070470020FCE788
:10207000480A00207047704707480078012802D1BD
:1020800003200549087004480078002802D1022086
:102090000149087070470000AB060020074800782F
:1020A000012802D10020054908700448007803285F
:1020B00002D102200149087070470000AB060020E1
:1020C000F0B589B0044600BF00BF00BF24480078C7
:1020D000FEF784FB05460022224BFEF783FA0391AC
:1020E0000290214909784906490E7D22D2005143C8
:1020F000601AFEF773FB01910090039B029AFEF7B2
:1021000063FA05910490FEF703FC07900DF0A2FA24
:1021100016490968401A06900698FEF743FB0546E3
:102120000799FEF7A9F9074611480068FEF73AFB40
:1021300005463946FEF7A0F9074607E02046FEF7B8
:1021400031FB05463946FEF742F90746002138467D
:10215000FEF7FAFBF2D33846FEF75CFB09B0F0BDA0
:10216000A806002000400F40A4060020A006002082
:10217000B006002070B50546002400260DF06AFA6E
:1021800006490968461AAC1B05480068241A00E095
:102190006419002CFCDB204670BD0000A006002066
:1021A000B0060020F8B504460025002600270DF0F3
:1021B00051FA0B490968461AA51B00F02FF980282F
:1021C00002D10848076808E000F028F9402802D149
:1021D0000448476801E003488768ED1B2846F8BDBE
:1021E000A0060020B806002010B503461C4600F0EB
:1021F00049F9002809D0064800680649081AC41899
:10220000E1200001844200D90446204610BD0000B0
:102210009C0600202AE80100074800780749096861
:1022200048430749096840181E214843054940189A
:1022300005490860704700009806002090060020BD
:1022400094060020480800009C06002030B58DB0A0
:102250001C4C1D4D1022002105A815F027FEF02270
:1022600000211A4815F022FE184A102105A80EF088
:1022700097FF1022002109A815F018FE002007E0A2
:10228000215C09AA11542A5C09AB011D5A54401C57
:102290000428F5DB0D4A01A909A80EF054FF0C48EB
:1022A000006800280BD0694649790A026946097915
:1022B000501807490968FDF71BFF064801600DB07B
:1022C00030BD0000A4060020C40700200018002034
:1022D000900600209406002010B50C4800214156BD
:1022E000002900DA10BD094801780120884000B2B9
:1022F0000749088005480178012000030841054985
:102300000860FFF7A3FF00BFECE700008D06002088
:102310008E0600209006002000B50D4800780328A6
:1023200002D100200B49087009480078022802D128
:1023300000200949087000F0B5F8002806D000F028
:1023400073F8002802D1012000F058FA00BD000007
:10235000EC090020AC060020AB06002000B51448B4
:10236000007801280AD100F09DF8002806D000F07E
:102370005BF8002802D1012000F040FA0C480078F8
:1023800002280DD100F08EF8002806D0002009495F
:102390000870022000F032FA02E0002000F02EFA6D
:1023A00003480078032802D100200349087000BDCB
:1023B000EC090020AB060020AC0600200B4800789A
:1023C000022803D009480078032802D100200749D9
:1023D000087007480078022803D0054800780328D1
:1023E00002D100200249087070470000AB060020AF
:1023F000AC0600200148006870470000B4060020C9
:102400000148006870470000B00600200020024923
:102410000A561104084370478D0600200149002028
:10242000085E70478E060020014800787047000063
:10243000D106002010B5002008490870084908702E
:1024400008490870084908700849087008480DF0E4
:10245000D9FA08480DF0D6FA10BD0000AB060020EE
:1024600098060020AC060020AA060020A90600203D
:10247000AC2C0020C02C00200148007870470000E0
:10248000AA06002005480078054900228A5E90428D
:1024900001DB012070470020FCE7000098060020C7
:1024A0008E06002001480078704700008C0600204E
:1024B00010B506480078032806D10121084608F027
:1024C00037F802200149087010BD0000AB0600205B
:1024D00010B50848007803280BD10748017807A0F9
:1024E0000EF016FA0121002008F022F8022001491E
:1024F000087010BDAC060020980600202D2D3E204F
:10250000536C6F744E282564290A0000F0B58BB017
:1025100004460D460126002700200A9009900890E5
:1025200007900590069014216846FDF754FE132D80
:1025300002D000200BB0F0BD0020694608701322C5
:10254000214600A8013015F097FC3046F2E7000064
:1025500007480078012802D1032005490870044883
:102560000078002802D1022001490870704700005D
:10257000AC06002007480078012802D10020054958
:10258000087004480078032802D10220014908702D
:1025900070470000AC06002010B500241C480078ED
:1025A000012826D11B48007800282CD11A48007831
:1025B000002807D019490968194A501AFFF780FD09
:1025C000044607E0154909687D229202501AFFF778
:1025D000D1FD0446214613480DF0C6F911480DF00F
:1025E000CDF9214610A00EF0C1F90120094908706B
:1025F00009E019A00EF08CF90121084607F098FFB8
:10260000022004490870032000F0F8F810BD000013
:10261000A9060020AB060020A8060020B406002072
:1026200018F00100AC2C00200A0D3E3E20507265CF
:1026300070617265206E65787420626561636F6E8B
:102640002077696E646F77206166746572202575E6
:10265000206D7320000000002D2D3E20436C61731F
:10266000734250726570617265426561636F6E5747
:10267000696E646F770A000070B5044600250C4847
:102680000078012812D10B490968601AFFF78AFD0A
:102690000546002D08DD294607480DF065F9064876
:1026A0000DF06CF9012070BD0020FCE70120FAE775
:1026B000A9060020C4060020C02C002000B5FFF7AA
:1026C000F1FE00280BD00848006800280AD107480E
:1026D0000078002806D1022000F090F802E00020E7
:1026E00000F08CF800BD0000D0090020AB060020EF
:1026F00010B5FFF7D7FE00281FD013480078002838
:1027000021D1FFF789FD11480078114900228A5E26
:10271000904203DB022000F071F814E00D480068DD
:10272000FFF7AAFF002802D00120074908700748D8
:102730000078401C0549087005E0002000F05EF8B4
:1027400000200249087010BDAC0600209806002049
:102750008E0600209C06002010B500F063F810BD26
:10276000034A1060034A11700122034B1A7070472C
:10277000A4060020A8060020A906002010B50CF031
:1027800069FF0149086010BDA006002001490860EA
:1027900070470000B406002001490860704700003F
:1027A000B00600200149086070470000C8060020FC
:1027B000FF2109040140090C49B2014A1170704718
:1027C0008D060020072802DC41B2014A11707047D3
:1027D0008D0600200146002905DB062903DC03489D
:1027E0000170012070470020FCE70000D0060020A7
:1027F0000149086070470000CC06002005490978AF
:10280000814200D17047062801DA0249087000BFF2
:10281000F8E70000D1060020014908707047000069
:102820008C06002010B5304800783049097888427D
:1028300006D000202E4908702C4800782A490870DC
:102840002A48007803000EF0E6F905040E1B2D3B24
:102850004C0027480078002804D1FFF7EBFD012049
:10286000234908703DE022480078002804D100F098
:102870006DF801201E4908700220FFF7BFFF30E00D
:102880001B48007800280CD1FFF70CFE002802D06E
:10289000FFF782FE02E00020FFF7B0FF012014499D
:1028A00008701EE012480078002802D1012010496B
:1028B0000870FFF7FDFDFFF701FF00BF00BF10E04C
:1028C0000B480078002807D1FFF706FD00200949D2
:1028D0000870012006490870FFF70AFFFFF7F8FDAE
:1028E00000BF00BF10BD0000D3060020D1060020AD
:1028F000D20600209806002038B50446002000903B
:10290000FFF73CFF6A4613212046FFF7FFFD002832
:102910000DD00420FFF772FF01200A4908700098CB
:1029200000280ED000210098FFF71AFF09E00648A2
:102930000078012803D10220FFF760FF01E000BF0B
:1029400000BF38BDAA060020A906002000BF00BFB6
:1029500070470000FFB583B005460E4617460020BD
:10296000029001902A460CA102A80EF029F902A9B2
:102970000698FDF73BFC002409E0325D07A101A8A1
:102980000EF01EF901A90698FDF730FC641CBC424C
:10299000F3DB07B0F0BD000025642000253032785D
:1029A00000000000FFB581B005460F4628785B287F
:1029B00051D1012404E0285D5D2800D102E0641CAF
:1029C000BC42F8DB00BFBC4242DA641C00260AE0CD
:1029D000F000224A811822462846FDF737FC0028DD
:1029E00000D102E0761C0E2EF2DB00BF0D2E2FDA96
:1029F000641C039806702819042219A1FDF726FC0F
:102A0000002803D101210498017021E02819052232
:102A100015A1FDF71BFC002803D1022104980170C9
:102A200016E02819052212A1FDF710FC00280FD18D
:102A3000641D009003210498017007E00A210098AA
:102A40004843295D303940180090641CBC42F5DBD6
:102A5000012005B0F0BD0020FBE7000018070020B2
:102A6000446F6E65000000005265616479000000EB
:102A7000457272202D00000010B501200249086047
:102A800002480CF0BFFF10BD2006002034100020CB
:102A900010B50446214605480CF066FF00200449A5
:102AA000086002480CF06AFF10BD000034100020DE
:102AB00020060020FFB583B006460024002500272D
:102AC00000200290019049E0305D302801DB0120B8
:102AD00000E00020315D392901DC012100E0002106
:102AE0000840002812D0002D05D10A207843315D1E
:102AF0003039471831E0052D2FDA6D1C0A21029874
:102B00004843315D30394018029026E0305D2E2870
:102B100011D1002D01D1012501E001200190642196
:102B20003846FDF7FBFA02910299781A6421FDF705
:102B3000F5FA074611E0305D2C280BD1002D00D1AD
:102B40006D1C04E00A210298484302906D1C052D7B
:102B5000F8DB05E00220019002E0641C0A2CB3DBE4
:102B600000BF0698002803D05A2F01DD03200190F2
:102B70000C98002803D0B42F01DD032001901049E8
:102B80000298884201DD032001900198002805D1B8
:102B9000049807700599029808600EE001980128D2
:102BA00001D100BF09E00198022801D100BF04E073
:102BB0000198032801D100BF00BF07B0F0BD00009D
:102BC000C027090030B50246002300200AE0012496
:102BD0008440144001258540AC4201D15C1CE3B225
:102BE000441CE0B28842F2DB184630BD10B5024901
:102BF000086D02F01BF810BD4819002010B50249FD
:102C0000086E02F013F810BD1021002010B5044921
:102C1000086E02F00BF80249486E02F007F810BD8A
:102C20008021002010B5046863608468102C04D1F2
:102C30000468A2600468E16003E00468A1600468BD
:102C4000E26010BD10B50446204602F07EFA10BDC9
:102C5000FEB504461949012008561949085C47B2D7
:102C600000200290154801254557072D03D0002D5F
:102C700003DB062D01DC012002900298002801D11F
:102C8000206019E00F480121FAB2009101900E492D
:102C900009780C2359430D4B58580D490B780021E6
:102CA0000EF050FE46B2072E03DBFF202D302060D1
:102CB00001E00020206000BF0120FEBDDC2B0020D1
:102CC000A0D8010885EE0008CD09002000090020E9
:102CD0001408002070B504460D4608F0DFFA08F02D
:102CE0006BFB0646A4B22A46214630460CF01AFA7F
:102CF00070BD000010B511481149086011484860C6
:102D0000114888601148124908600120C0431149E8
:102D10000860084605F018FA0D49094804F022FE3B
:102D20000D490E480CF03AFD0D480078002804D1FA
:102D300008F07AFE01200A49087010BD7D83000862
:102D4000AC0A0020A9830008958600088D1A0008A7
:102D50005C000020B80A0020799D0008E40B0020E8
:102D60007200002030B5024600231046D417240F0D
:102D700024182405230E042B01DC102A01DB00207B
:102D800030BD1046D417240F241824112401151B1C
:102D90000124AC405D004D5BA5435C000D53012058
:102DA000EEE7000030B5014600220846CB171B0FA6
:102DB0001B181B051A0E052A01DC102901DB002057
:102DC00030BD0846CB171B0F1B181B111B01CC1A5B
:102DD0000123A3405400034D2C5B9C435300EC5251
:102DE0000120EDE73E08002010B509F0DDFB0120D1
:102DF00002F0CEFA022002F0CBFA10BD10B509F0B5
:102E0000D3FB042002F0C4FA082002F0C1FA10BD7E
:102E100010B509F0C9FB102002F0BAFA202002F028
:102E2000B7FA402002F0B4FA802002F0B1FAFF2095
:102E3000013002F0ADFA0120400202F0A9FA0120AF
:102E4000800202F0A5FA0120C00202F0A1FA0120DE
:102E5000000302F09DFA0120400302F099FA0120DC
:102E6000800302F095FA0120C00302F091FA10BD30
:102E700000BFFEE700BF00BF704770472F48806962
:102E8000FF2101310840884205D12D4840690821C1
:102E900008432B49486129488069012149020840BB
:102EA000884205D1264840690421084324494861E5
:102EB00022488069012189020840884205D12048C2
:102EC0004069022108431E4948611C48806901216C
:102ED000C9020840884205D11948406910210843B9
:102EE0001749486115488069012149030840884213
:102EF00005D11348406901210843114948610F4831
:102F00008069012149040840884205D10C48406984
:102F1000202108430A4948610848806901210904C1
:102F20000840884205D106484069402108430449C9
:102F30004861044801498861704700000020024050
:102F400078280020002F030070B5044602F03CFBF7
:102F500005460BE0601C002808D0002C04D002F0CD
:102F600033FB401BA04201D9032070BD2448806977
:102F7000C007C00F0121484048400028EAD120483E
:102F8000806902210840022801D11D4988611C483E
:102F90008069FF2101310840000A002829D1184822
:102FA000806949000840400A002822D114488069FD
:102FB00049000840800A00281BD111488069490057
:102FC0000840C00A002814D10D48806989000840D3
:102FD000400B00280DD10A48806909010840400CC7
:102FE000002806D10648806949100840000C0028D6
:102FF00003D0FFF743FF0120B7E70020B5E700004B
:10300000002002400023038043804160028170471A
:1030100070B504460D462189681CFDF77FF888B21B
:1030200070BD70B5044621882046FFF7F1FF616846
:103030000D5C21882046FFF7EBFF2080284670BDFD
:1030400070B504460D4661882046FFF7E1FF6080B9
:1030500061886068455470BDFFB581B004460D4677
:10306000002100200022002600965B1C29E0665CFF
:10307000302E0BDB665C392E08DC002800D0401CAB
:103080000A265643675C303FF21919E0665C2E2E23
:1030900006D1002801D1401C12E0012600960FE065
:1030A000665C2C2E09D1002800D1401C02E00A26C3
:1030B0007243401C9842FADB06E00226009603E0C9
:1030C000491C039EB142D2DB00BF009E002E01D1FD
:1030D00016B22E8005B0F0BDF7B582B005460E469B
:1030E00007223CA13046FDF7B1F8002870D1002737
:1030F000002466E0305D2C2862D17F1C641C3B00FC
:103100000DF089FD0C5C070C16222C383E444C5CFB
:10311000545C301929460CF05BFA50E00020009016
:10312000301901232A460832E91DFFF7C3FC46E0A7
:10313000305D4E2802D10120A87104E0305D532893
:1031400001D10020A8713AE001200090301900233D
:103150002A461032D11EFFF7ADFC30E0305D452825
:1031600002D10120287304E0305D572801D10020EE
:10317000287324E030192946143104F07EFA1EE049
:1031800030192946183104F078FA18E03019012373
:10319000032229461C31FFF75FFF10E0301901239D
:1031A000062229461E31FFF757FF08E03019012398
:1031B000062229462031FFF74FFF00E000BF00BF85
:1031C000641C0498844295DB012005B0F0BDFFE744
:1031D0000020FAE72447504747412C00F7B582B05A
:1031E00005460E46072239A13046FDF72FF8002884
:1031F00014D0072237A13046FDF728F800280DD05B
:10320000072236A13046FDF721F8002806D0072214
:1032100034A13046FDF71AF8002855D100270024C4
:103220004CE0305D2C2848D17F1C641C3B000DF025
:10323000F2FC0842050E1A2430363F42002000906E
:10324000301901232A1D691CFFF734FC34E0305D7E
:103250004E2802D10120287004E0305D532801D1AE
:103260000020287028E001200090301900232A4611
:103270000C32D11EFFF71EFC1EE0305D452802D146
:103280000120287204E0305D572801D10020287207
:1032900012E03019294610310CF09AF90CE0305D3B
:1032A000412802D10120E87401E00020E87403E025
:1032B000305D287500E000BF00BF641C04988442A4
:1032C000AFDB012005B0F0BD0020FBE724475047ED
:1032D0004C4C2C0024474C474C4C2C002442444777
:1032E0004C4C2C0024474E474C4C2C00F7B582B078
:1032F00005460E46072244A13046FCF7A7FF0028EA
:1033000014D0072242A13046FCF7A0FF00280DD0C0
:10331000072241A13046FCF799FF002806D007227A
:103320003FA13046FCF792FF00286BD10027002414
:1033300062E0305D2C285ED17F1C641C3B000DF0E8
:103340006AFC0C58070C151F2B354149515657582C
:10335000301929460CF03CF94CE0305D412802D18F
:103360000120287601E00020287643E0002000902C
:10337000301901232A460832E91DFFF79BFB39E08B
:10338000305D4E2802D10120A87104E0305D532841
:1033900001D10020A8712DE00120009030190023F8
:1033A0002A461032D11EFFF785FB23E0305D452809
:1033B00002D10120287304E0305D572801D100209C
:1033C000287317E030190123052229461431FFF72D
:1033D00043FE0FE030190123052229461631FFF77D
:1033E0003BFE07E03019E91C0CF0F2F802E000BFE8
:1033F00000E000BF00BF641C0498844299DB0120F8
:1034000005B0F0BD0020FBE7244750524D432C008F
:1034100024474C524D432C00244244524D432C002F
:1034200024474E524D432C00002070470246002195
:103430000FE0C800094B1858904208D8481CC0003B
:103440001858904203D9C800C01800797047481C2A
:10345000C1B21529EDD300BFFEE7000020D9010855
:10346000FEB504460F4615462007000F00902609BA
:10347000062D01DA0020FEBD2148844205D121A19C
:103480003846FCF7B3FE0120F5E733000DF0C3FB2F
:1034900007050A0F14191E2328001BA13846FCF744
:1034A000A5FE1FE019A13846FCF7A0FE1AE018A1FE
:1034B0003846FCF79BFE15E016A13846FCF796FE51
:1034C00010E015A13846FCF791FE0BE013A1384639
:1034D000FCF78CFE06E012A13846FCF787FE01E0FF
:1034E0000020C8E700BF002001900EA101A8009AAB
:1034F0000DF066FB01A93846FCF778FE0120BAE71B
:10350000FFFF00004E43000050415F0050425F004B
:1035100050435F0050445F0050455F0050465F00DD
:1035200050485F0025640000FFB583B005460C4697
:1035300016460C9F2011062802D90748844208D15C
:103540000D9800970190324621462846069B00F0D0
:1035500005F807B0F0BD0000FFFF0000F0B587B030
:1035600004460E4615461F4626805A48864201D11B
:1035700007B0F0BD20780107090F01208840608066
:103580002088F0210840002810D105200007606045
:1035900000BF5148C06A012108434F49C86208462C
:1035A000C06AC007C00F019000BF63E02088F0210F
:1035B000084010280FD14948606000BF4648C06AE3
:1035C000022108434449C8620846C06A02210840F3
:1035D000019000BF4EE02088F021084020280FD144
:1035E0003F48606000BF3C48C06A042108433A4934
:1035F000C8620846C06A04210840019000BF39E053
:103600002088F021084030280FD13648606000BF84
:103610003148C06A082108432F49C8620846C06A79
:1036200008210840019000BF24E02088F0210840D4
:1036300040280FD12C48606000BF2748C06A102185
:1036400008432549C8620846C06A10210840019015
:1036500000BF0FE02548606000BF1F48C06A80219E
:1036600008431D49C8620846C06A8021084001908D
:1036700000BF00BF608802900C9804900220059063
:10368000002D02D10020039017E0032D02D103206A
:10369000039012E0022D09D1012F02D112200390D4
:1036A00001E0022003900D98069006E0012F02D160
:1036B0001120039001E00120039002A9606801F04D
:1036C00077FE012D03D120460D9900F0D5F800BFFB
:1036D0004EE70000FFFF0000001002400004005011
:1036E00000080050000C005000100050001C00505A
:1036F00010B50446002C00D100BF20880449884240
:1037000001D1002010BD6188606801F04DFFF9E72C
:10371000FFFF000010B586B00446608801900320CA
:10372000029001A9606801F043FE06B010BD0000E0
:10373000F0B587B004460D4616461F460020069099
:1037400005200590002F01D107B0F0BD60880090E2
:10375000012D02D14448019006E0022D02D14348D8
:10376000019001E042480190002002900220039065
:103770006946606801F01CFE33000DF04CFA050448
:1037800005080B0F0E0000BF0320069009E0022081
:10379000069006E00120069003E000BF002006909E
:1037A00000BF00BF6188FF220132881A91423FD0DA
:1037B00012DC102938D008DC01292DD002292CD0A8
:1037C00004292DD008293DD12BE020292DD04029D6
:1037D0002CD0802936D12AE00F221202811A904281
:1037E0002AD00DDCFF380138002822D0FF38FF38FE
:1037F000023800281ED001218902401A22D11AE085
:1038000001200003081A18D001214903401A15D0DD
:103810004900401A16D112E000BF0520059012E0C1
:1038200000BF062005900EE000BF00BF00BF00BF34
:1038300000BF00BF00BF00BF00BF00BF00BF072028
:10384000059000E000BF00BF20780007800E094906
:103850000F5000220699059801F002FF059801F02B
:10386000F3FE00BF70E700000000111000002110FF
:10387000000031101020002070B504460D46002CC9
:1038800002D06068002800D100BF20880549884226
:1038900000D170BDEAB26188606801F08EFE00BFA1
:1038A000F7E70000FFFF000010B504462088001174
:1038B000062803D82046FFF71BFF10BD0020FCE7B9
:1038C00010B5044620880011062802D82046FFF7CC
:1038D00021FF10BDF8B504460D4616461F46208848
:1038E0000011062805D83B46324629462046FFF7F8
:1038F0001FFFF8BD70B504460D462088001106284C
:1039000003D829462046FFF7B7FF70BDFFB583B047
:1039100015461E460C9F032400950196029719E058
:10392000032C06D16A460499039800F083F80446F4
:1039300010E0002C08D1002000906A460D21039869
:1039400000F078F8044605E0052C00D103E0042CD3
:1039500000D100E0E4E700BF07B0F0BDFFB585B0DF
:103960000D4616461F460E9C002004900120039031
:10397000002002901098012802D10220049001E05A
:10398000012004900020034602460146009005985D
:10399000FFF7BCFF00200346024606210090059871
:1039A000FFF7B4FF002003463A460821009005982F
:1039B000FFF7ACFF002003462A4609210090059836
:1039C000FFF7A4FF0020334600900721049A0598D2
:1039D000FFF79CFF1098012807D1002003460090B4
:1039E0000C21039A0598FFF791FF0F98012801D148
:1039F000029001E0002002900020034600900B217D
:103A0000029A0598FFF782FF6420FFF71BF9052C47
:103A100003D0042C01D0032C0AD100200346024617
:103A2000214600900598FFF771FF012009B0F0BD15
:103A30000020FBE7F0B589B005460E46174600208A
:103A40000890002D01D0002F02D1042009B0F0BD54
:103A50003868079078680690B86805900D21049141
:103A6000002103910D2E3BD068780D2801D0012054
:103A700008902878002806D0012809D0022823D0F1
:103A800003282BD125E0002E01D00220089026E04B
:103A900033000DF0C0F80D100814090A0B110C0DBD
:103AA0000E0F1213140000BF00BF00BF00BF00BF05
:103AB00000BF00BF00BF00BF00BF00BF02E0022088
:103AC000089000BF00BF0AE0062E01D00220089037
:103AD00005E0022E01D00220089000E000BF00BFE8
:103AE000954800689549884202D90320089008E06B
:103AF00091480068002804D08F480068401C8E4917
:103B00000860089803000DF086F805120406080FF7
:103B100011000D260CE00D260AE00D260D20687020
:103B200000208549086003E00D2601E000BF00BFCA
:103B300000BF0D2E10DA20218148FCF74CFBF0006D
:103B4000804A81187E48FCF778FB40207C49087049
:103B50006E7001207849086033000DF05CF80D08A4
:103B60002A090A0B0C0E5D2B2C0D2D2EAC0000BF6C
:103B700000BF00BF00BF00BF00BF002415E07048B9
:103B8000005D5D2810D10D206D4908550A216C4A51
:103B9000601C1154A01C82B269496B4803F00AFDF5
:103BA0006420FFF74FF802E0641C202CE7D300BF2D
:103BB00082E000BF00BF00BF00BF002428E06048D3
:103BC000005D5D2823D120222046641C5C490A54F4
:103BD0005EA102A8079A0CF0F3FF5949081902A93F
:103BE000FCF72BFB02A8FCF721FB04190D22204651
:103BF000641C53490A540A222046641C0A54A2B287
:103C0000514803F0D7FC6420FFF71CF802E0641C65
:103C1000202CD4D300BF4FE0002448E04848005D8A
:103C20005D2843D120222046641C45490A540020C7
:103C3000029046A102A8079A0CF0C2FF4049081959
:103C400002A9FCF7FAFA02A8FCF7F0FA04192022FC
:103C50002046641C3A490A540020009001903BA180
:103C60006846069A0CF0ACFF354908196946FCF71E
:103C7000E4FA6846FCF7DAFA041920222046641CAC
:103C80002F490A5430222046641C0A540D22204633
:103C9000641C0A540A222046641C0A54A2B22A4810
:103CA00003F088FC6420FEF7CDFF02E0641C202CAA
:103CB000B4D300BF00E000BF00BF03AA04A9284698
:103CC00000F05AF869884018688068786946097C6D
:103CD00088422FD16846007B01281FD168780300F5
:103CE0000CF099FF070D050E08090A0F12000320BA
:103CF00028700AE000BF00BF0220287005E000BF66
:103D000000BF0120287000E000BF00BF0520089020
:103D10000D2068700020084908600BE06846007BB1
:103D2000022801D100BF05E06846007B032801D1CD
:103D300000BF00BF089889E69407002088130000A0
:103D40003228002018070020802100202564000070
:103D500000B585B000200090034601221221019099
:103D600002A8FFF7E1FBC820FEF76CFF012102A8C3
:103D7000FFF7C0FD05B000BDF7B582B006460F469F
:103D80000024794800684068FF210131081A77490A
:103D9000088077480088098888423DDD754800889A
:103DA000FF30013072490988401A012149028842D6
:103DB0001ADA6F4A12884B109A1A01926E4A6C4BAB
:103DC0001B88D1186D4A6B4B1B88D018019AFCF7E1
:103DD000E9F967480088FF210131081A6549098817
:103DE00040186449088014E06249098801235B0295
:103DF0005A1A61495E4B1B88C91801915F495D4B96
:103E00001B88C8180199FCF7CDF9012040025949D7
:103E10000880002056490880544800885449098881
:103E200088423DDD53480088504909884018504970
:103E30000988401A01214902884219DA4C48008851
:103E40004B101A1A4C484A4B1B88C1184B48494B17
:103E50001B88C0180190FCF7A5F944480088444924
:103E60000988401A4349098840184249088013E0EC
:103E70004048008801235B021A1A3F483C4B1B88CC
:103E8000C1183E483B4B1B88C0180190FCF78AF9CB
:103E900001204002374908803448008834490880AE
:103EA000002451E03548005D0D284BD13349601C9A
:103EB000085C0A2846D1A01C085C5B2824D1A01C01
:103EC00085B21CE02D48405D0D2816D12B49681C99
:103ED000085C0A2811D12A1B921E91B2274A121996
:103EE000901C3A46049BFEF75DFD002805D0A21CFD
:103EF00022492348FCF756F905E0681C85B21D48A5
:103F000000888542DEDB1AE03A4621461B48049BC6
:103F1000FEF748FD002812D1224618497068FFF7C5
:103F2000E5F900280BD122461449B068FFF7D4F810
:103F3000002804D122461149F068FFF74FF900200C
:103F40000C490880601C84B20A4800888442A9DBBE
:103F50000848008801214902884202D10020054911
:103F60000880204605B0F0BD182500208E070020EF
:103F70008C07002090070020FC2100203226002022
:103F800014260020F8B504460F460025002600BF81
:103F90005420005D012801D10220F8BD01215420E8
:103FA000015500BF206880688007800F012806D176
:103FB000206800680840002801D0012000E00020AF
:103FC00000282FD1A06DFF21013188430221084331
:103FD000A06520688068890708432168886001F02F
:103FE000F3FA064611E001F0EFFA801B0A280CD91B
:103FF000A06D0221884310210843A06500BF002165
:104000005420015500BF0120C7E720688068C00F19
:10401000C0070028E7D1A06D022188430121084391
:10402000A06504E0A06D20210843A065012500BF24
:1040300000215420015500BF2846AEE770B5044664
:104040000D4600BF5420005D012801D1022070BD43
:1040500001215420015500BF2068806804210840D8
:10406000800800280AD0A06D20210843A06500BF69
:1040700000215420015500BF0120E8E73C49686851
:10408000884238D02068806A29684903490B084370
:104090002168886228684003400B364908400121A6
:1040A0008904884208D1344880684901084332496C
:1040B00088600A20FCF784FF28684003400B2F49E2
:1040C000084001214904884205D12B4880684901F4
:1040D00008432949886028684003400B2849084064
:1040E0000121090488423BD1234880680902084322
:1040F0002149886034E02068806A29684903490BB7
:1041000088432168886228684003400B19490840A9
:1041100001218904884205D11748806849018843F4
:104120001549886028684003400B14490840012164
:104130004904884205D110488068490188430E49E6
:10414000886028684003400B0D490840012109049C
:10415000884205D10848806809028843064988607A
:1041600000BF00215420015500BF00206FE7000070
:104170000110000000000448002701400000024434
:104180000000014010B50446204600F0FBFA002074
:104190000149087010BD0000DD06002070470000D6
:1041A00070B504460025002C01D1012070BDA06D22
:1041B00002210843A0652046FCF772FE0546002D4B
:1041C00007D12046FCF712FF0546012D01D0012042
:1041D000A065012D3ED02068406822490840216832
:1041E00048602048C0432168086020688068012139
:1041F00009078843216888602068C0681A49084018
:104200002168C86020680069184908402168086171
:1042100020684069C008C000216848612068006AC1
:10422000134908402168086220688030406BC1094A
:10423000C90120688030416320688030406BC1092B
:10424000C901206880304163204600F02FF900202A
:10425000E065A06500BF00215420015500BF28463D
:10426000A4E7000060F7FFFF00023E8302FCFF3F6F
:1042700000F000F07047000010B50446002C01D19A
:10428000012010BDA06D002806D1E065002154205A
:104290000155204600F056F9A06D10210840002875
:1042A00006D12068806804210840800800280AD0D0
:1042B000A06D10210843A06500BF002154200155C6
:1042C00000BF0120DDE7A06DFF21013188430221FD
:1042D0000843A065206880688007800F012807D107
:1042E00020680068C007C00F002801D0012000E04E
:1042F000002000283AD100BF032189076069884265
:1043000007D049426069884203D049006069884209
:104310000CD120680069800080082168086120684D
:104320000069616908432168086112E0206800693A
:104330008000800821680861594880680F2189043D
:104340008843574988600846806861690843544932
:10435000886000BF2068C068182188432168C86051
:104360002068C068A16908432168C8604C4880681B
:104370000121490688434A49886008468068A16C43
:10438000490608434649886020688068012109077A
:104390000840002804D120688068084321688860AC
:1043A0002068C0683F4908402168C860216A606A87
:1043B000022901D1042100E000210843A16A490338
:1043C0000843A16B49000843216C0843616C8903D1
:1043D0000843E16CC90308432168C96808432168A0
:1043E000C860FF21C231206B884207D0616B206B0F
:1043F00008432168C96808432168C860E06A012849
:1044000012D1A06A002807D12068C06801210904E0
:1044100008432168C86007E0A06D20210843A0651B
:10442000E06D01210843E0656068012816D120682D
:1044300000691D49084021680861A168E0680843D7
:1044400021690843216809690843216808612068D7
:10445000006901210843216808610BE020680069B8
:10446000C007C00F002805D0206800694008400040
:104470002168086120684069C008C000216848615F
:1044800020684069E1690843216848610020E065CF
:10449000A06D0221884301210843A0650020F0E6B9
:1044A000002701401902FEFF03FCFF7F10B5044600
:1044B0002048406A0121490208431E4948620846D3
:1044C000406A491588431B4948621B490868FDF743
:1044D0003DF8002804D101210520000700F0ACFEC2
:1044E00015494868FDF732F8002803D10121134827
:1044F00000F0A2FE10498868FDF728F8002803D1D3
:1045000002210E4800F098FE0B49C868FDF71EF81E
:10451000002803D101210A4800F08EFE06490869EF
:10452000FDF714F8002803D10221054800F084FEAD
:1045300010BD000000100240E4D701080004005044
:104540000008005010B586B0044600BF5748C06A46
:10455000012108435549C8620846C06AC007C00F18
:10456000009000BF00BF00BF0846C06A0221084398
:104570004E49C8620846C06A02210840009000BF48
:1045800000BF00BF4948C06A042108434749C862C8
:104590000846C06A04210840009000BF00BF43489D
:1045A000406BC90108434149486300BF0846006B9E
:1045B000012108433D4908630846006BC007C00F4E
:1045C000009000BF00BF03200290002003903849F4
:1045D0000868FCF7BBFF002806D10120019001A963
:1045E0000520000700F0E4FE31494868FCF7AEFF03
:1045F000002805D10120019001A92E4800F0D8FE25
:104600002B498868FCF7A2FF002805D10220019001
:1046100001A9284800F0CCFE2549C868FCF796FFA0
:10462000002805D10120019001A9234800F0C0FE17
:104630001F490869FCF78AFF002805D10220019074
:1046400001A91D4800F0B4FE19494869FCF77EFF36
:10465000002801D100BF00BF184819490860002197
:1046600017488160C1608021016149004161890072
:1046700081612021C161C9010162002010494860A7
:10468000084600F085F90E4800F05EFC00BF0C48BB
:104690002065846200BF00220121092000F0E0FFB4
:1046A000092000F0D1FF06B010BD0000001002404C
:1046B000E4D7010800040050000800500800024040
:1046C0000C190020F8B504460D4616460027206850
:1046D0008068042108408008002848D100BF542089
:1046E000005D012801D10220F8BD012154200155AF
:1046F00000BFE06C012803D02046FCF7C5FC07464C
:10470000002F35D1A06D1B490840FF21013108431E
:10471000A0650020E06500BF00215420015500BFC6
:104720001548216DC8621548216D08631448216D34
:1047300048631C20216808602068406810210843F5
:10474000216848602068C068012108432168C8606A
:1047500022681146403133462A46206D00F0BCFCE9
:1047600020688068042108432168886000E00227EF
:104770003846B9E7FEF1FFFF0D0F0008B10F000842
:10478000930F000870B50446002500BF5420005D5B
:10479000012801D1022070BD01215420015500BF24
:1047A0002046FCF77DFB0546002D28D12068C06817
:1047B000400840002168C860206D00F0B7F8054649
:1047C000002D03D0A06D40210843A06520684068FB
:1047D0001021884321684860002D04D12046FCF751
:1047E00005FC054602E02046FCF700FC002D06D142
:1047F000A06DFF210131884301210843A06500BF5E
:1048000000215420015500BF2846C4E730B50346B7
:104810000C461F2100BF012088402040002803D102
:104820000846491E0028F6D1002A14D0082A0DD0C7
:10483000102A06D0182A0FD1072901D3012030BD34
:104840000BE0082901D30120F9E706E0102901D384
:104850000120F4E701E000E000BF00BF18684461F8
:10486000186880681825A84310431D68A8600020B8
:10487000E5E7000010B50446002C01D1012010BD71
:10488000607F002803D12077204600F039F802200D
:1048900060772079002809D118482168486120688C
:1048A0008068182188432168886008E02046E26813
:1048B000A168FFF7ABFF002801D00120DFE7607996
:1048C000002803D1401E2168086102E021682069A8
:1048D0000861206880686021884361690843216815
:1048E00088602068806880218843A1690843216826
:1048F0008860012060770020C1E70000B71DC10477
:10490000704700000348406804210843014948609B
:1049100070470000005801400348406802210843E6
:1049200001494860704700000058014070B50446D6
:10493000002520680068400840002168086000F0F9
:1049400043FE054614E000F03FFE401B7D21C900F8
:1049500088420DD9A06B20210843A06300BF00212D
:104960002420015500BF032125200155032070BDDF
:1049700020680068C007C00F0028E4D100BF0021F4
:104980002420015500BF0121252001550020EEE71C
:104990000146002901D1012070472520405C0228F2
:1049A00001D10120F8E708680068400840000A6863
:1049B000106000200A6810600A6850600A68906001
:1049C0000A68D060984A0868904201D1012026E028
:1049D000954A14320868904201D110201FE0924A93
:1049E00028320868904201D1801518E08E4A3C3286
:1049F0000868904201D1801411E08B4A5032086857
:104A0000904202D10120000409E0874A643208681C
:104A1000904202D10120000501E001200006824AF7
:104A2000083A5060804A0868904201D1022027E08D
:104A30007D4A14320868904201D1202020E07A4A51
:104A400028320868904201D1401519E0764A3C327C
:104A50000868904202D10120400311E0724A5032AE
:104A60000868904202D10120400409E06E4A643295
:104A70000868904202D10120400501E00120400673
:104A8000694A083A5060684A0868904201D1082093
:104A900027E0654A14320868904201D1802020E066
:104AA000614A28320868904201D1C01419E05E4A78
:104AB0003C320868904202D10120C00311E05A4AFA
:104AC00050320868904202D10120C00409E0564AE1
:104AD00064320868904202D10120C00501E0012043
:104AE000C006514A083A50604F4A0868904201D1C6
:104AF000042027E04C4A14320868904201D140203B
:104B000020E0494A28320868904201D1001519E096
:104B1000454A3C320868904202D10120800311E0EE
:104B2000414A50320868904202D10120800409E0D5
:104B30003D4A64320868904202D10120800501E0BC
:104B400001208006384A083A5060374A0868904287
:104B500008D135487830806A00090001324A78323D
:104B6000906255E0304A14320868904208D12E48CD
:104B70007830806AF02290432B4A7832906247E086
:104B8000294A28320868904209D127487830806A3B
:104B90000F2212029043244A7832906238E0224A6F
:104BA0003C320868904209D11F487830806A0F2251
:104BB000120390431C4A7832906229E01A4A50321C
:104BC0000868904209D118487830806A0F22120490
:104BD0009043154A783290621AE0134A64320868AA
:104BE000904209D110487830806A0F221205904314
:104BF0000D4A783290620BE00B4A78320868904296
:104C000006D1806A0F2212069043074A78329062DA
:104C10000020886300222520425400BF24204254F3
:104C200000BF0020B8E600000800024010B50446AE
:104C3000C4480068C34A08322168914201D1082162
:104C400027E0C04A1C322168914201D1802120E036
:104C5000BC4A30322168914201D1C91419E0B94AE5
:104C600044322168914202D10121C90311E0B54AC1
:104C700058322168914202D10121C90409E0B14AA8
:104C80006C322168914202D10121C90501E0012164
:104C9000C906084000284DD0206800680821084057
:104CA000002847D020680068884321680860A5492B
:104CB00008312068884201D1082027E0A1491C3131
:104CC0002068884201D1802020E09E493031206850
:104CD000884201D1C01419E09A49443120688842C1
:104CE00002D10120C00311E0964958312068884262
:104CF00002D10120C00409E092496C312068884249
:104D000002D10120C00501E00120C0068D494860A4
:104D1000A06B01210843A06304212520015500BF99
:104D200000212420015500BF606B002802D02046DE
:104D3000616B884783480068824A08322168914243
:104D400001D1042127E07F4A1C322168914201D120
:104D5000402120E07B4A30322168914201D109157F
:104D600019E0784A44322168914202D10121890335
:104D700011E0744A58322168914202D1012189041C
:104D800009E0704A6C322168914202D10121890503
:104D900001E001218906084000284BD02068006806
:104DA00004210840002845D02068006820210840E0
:104DB000002805D120680068042188432168086024
:104DC000604908312068884201D1042027E05D490C
:104DD0001C312068884201D1402020E059493031FF
:104DE0002068884201D1001519E0564944312068F5
:104DF000884202D10120800311E0524958312068D5
:104E0000884202D10120800409E04E496C312068BB
:104E1000884202D10120800501E001208006494935
:104E20004860052125200155206B002802D020462E
:104E3000216B884743480068424A08322168914202
:104E400001D1022127E03F4A1C322168914201D161
:104E5000202120E03B4A30322168914201D149159E
:104E600019E0384A44322168914202D101214903B4
:104E700011E0344A58322168914202D1012149049B
:104E800009E0304A6C322168914202D10121490582
:104E900001E0012149060840002852D0206800683E
:104EA0000221084000284CD02068006820210840DA
:104EB000002805D120680068022188432168086025
:104EC000204908312068884201D1022027E01D498D
:104ED0001C312068884201D1202020E0194930315E
:104EE0002068884201D1401519E0164944312068F4
:104EF000884202D10120400311E012495831206854
:104F0000884202D10120400409E00E496C3120683A
:104F1000884202D10120400501E0012040060949F4
:104F20004860A06BA06301212520015500BF00212E
:104F30002420015500BFE06A002802D02046E16A23
:104F4000884710BD0000024001460022002901D11F
:104F5000012070472520405C002802D10023242036
:104F600043540223252043540868026858480240ED
:104F7000CB68886818430B6918434B6918438B69E1
:104F80001843CB6918430B6A184302430868026050
:104F9000504B086898420FD14E487830806A00091B
:104FA00000014C4B783398621846806A4B6818436E
:104FB000484B7833986285E0464B14330868984232
:104FC00010D144487830806AF0239843414B7833BD
:104FD00098621846806A4B681B0118433D4B783332
:104FE00098626FE03B4B28330868984211D13948EA
:104FF0007830806A0F231B029843364B78339862CF
:105000001846806A4B681B021843324B783398620B
:1050100058E0304B3C330868984211D12D48783025
:10502000806A0F231B0398432A4B783398621846F3
:10503000806A4B681B031843264B7833986241E023
:10504000244B50330868984211D122487830806A46
:105050000F231B0498431F4B783398621846806ACD
:105060008B881B0418431B4B783398622AE0194B3A
:1050700064330868984211D116487830806A0F234B
:105080001B059843134B783398621846806A8B88C7
:105090001B0518430F4B7833986213E00D4B7833A0
:1050A000086898420ED1806A0F231B069843094B6B
:1050B000783398621846806A0B791B061843054BB3
:1050C00078339862012325204354002041E70000F3
:1050D0000FC0FFFF08000240F8B504460D46164613
:1050E0001F4600BF2420005D012801D10220F8BD29
:1050F00001212420015500BF0221252001552068EF
:10510000006840084000216808603B463246294656
:105110002046FDF787FD20680068022108432168CA
:10512000086020680068042108432168086020683E
:105130000068082108432168086020680068012190
:105140000843216808600020D1E731B5002400F051
:105150003BFA044600BF00F037FA001B0099884272
:10516000F9D338BD70B5044600250748FDF7ECFEBD
:105170000546002D06D10549486120600248FDF72B
:10518000E3FE0546284670BD50C300007828002085
:1051900003484068012108430149486000207047E6
:1051A00000200240F8B504460D461646012700BF10
:1051B0001448007C012801D10220F8BD01201149CA
:1051C000087400BF1048FDF7BFFE0746002F12D13C
:1051D0000C494861022C01D12E6008E0012C01D15C
:1051E0002E8004E0002C01D12E7000E0012706483B
:1051F000FDF7AAFE074600BF00200249087400BF61
:105200003846DAE77828002050C300000748406895
:10521000C007C00F002806D005480449C8600548EB
:10522000C860002070470120FCE700000020024019
:10523000EFCDAB8905040302F0B50B460021002237
:10524000002479E001258D401D402A46002A72D0B5
:1052500005684F000326BE40B5430560CD08AE008B
:1052600005462035AD594E07F70E0F26BE40B54313
:10527000CE08B60007462037BD5185684F0003268B
:10528000BE40B5438560456801268E40B543456004
:10529000C5684F000326BE40B543C560294D8E0842
:1052A000B600AC598D072E0F0F25B5402C400525B3
:1052B0002D07A84201D1002519E0234DA84201D1B4
:1052C000012514E0214DA84201D102250FE0204D17
:1052D000A84201D103250AE01E4DA84201D10425B0
:1052E00005E01D4DA84201D1052500E006258E07E9
:1052F000360FB540A5421ED18D072E0F0F25B540A4
:105300002C46104D8E08B600AD59A5430D4E8F08A2
:10531000BF00F551114D2D689543104E356035464F
:105320006D68954375603546AD689543B560354603
:10533000ED689543F560491C1D46CD40002D81D197
:10534000F0BD0000080001400004005000080050BB
:10535000000C005000100050001C005000040140E0
:1053600070B504460025002C05DD02E06410681CC1
:10537000C5B2012CFAD1A80004490858002803D06E
:10538000A900024A5058804770BD0000102000203C
:1053900010B50446054840692040002804D0034861
:1053A00044612046FFF7DCFF10BD0000000401400F
:1053B00070B50346002200240020DFE0012696405D
:1053C0000D6835402C46002C77D04D68022D02D058
:1053D0004D68122D15D1D508AE001D462035A859AF
:1053E0005507EE0E0F25B5400646AE43304656072C
:1053F000F60E0D69B5402843D508AD001E4620368F
:1054000070514D68012D08D04D68022D05D04D68B2
:10541000112D02D04D68122D18D198685600032521
:10542000B5400646AE4330465600CD68B5402843E9
:1054300098605868012595400646AE4330461026D0
:105440004D6835402D09954028435860186856002E
:105450000325B5400646AE4330460D79AD07AD0F86
:105460005600B54028431860D86856000325B5405B
:105470000646AE43304656008D68B5402843D86096
:10548000012636074D683540B54276D13E4D6D6BED
:10549000012635433C4E75633C4D9608B600A8592D
:1054A00095072E0F0F25B5400646AE43304605251D
:1054B0002D07AB4202D100251AE05EE0344DAB422D
:1054C00001D1012514E0334DAB4201D102250FE09B
:1054D000314DAB4201D103250AE0304DAB4201D141
:1054E000042505E02E4DAB4201D1052500E006253F
:1054F0009607360FB5402843244D9608B600A851AC
:10550000284D28680546A5432846012636044D68DF
:105510003540B54202D1054625432846214D286035
:1055200068680546A5432846012676044D6835403F
:10553000B54202D10546254328461A4D6860A86841
:105540000546A5432846012636054D683540B54237
:1055500002D1054625432846124DA860E868054655
:10556000A5432846012676054D683540B54202D14F
:105570000546254328460B4DE860521C0D68D54072
:10558000002D00D01AE770BD001002400800014055
:105590000004005000080050000C005000100050A3
:1055A000001C005000040140024613690B40002B10
:1055B00001D0012000E000207047002A01D0816165
:1055C00000E08162704700000148006870470000F9
:1055D0009C07002002480068401C01490860704791
:1055E0009C07002010B50648006840210843044984
:1055F0000860002000F006F800F018F8002010BD48
:105600000020024070B504467D21C90006480068AC
:10561000FAF76EFD054601F0EDFB00222146501E13
:1056200000F01EF8002070BD9807002070470000B1
:1056300000BFC206D20E01219140024A116000BF94
:105640007047000080E100E000BFC206D20E0121D9
:105650009140024A116000BF7047000000E100E085
:1056600070B504460D4616462946204603F0AAF8B2
:1056700070BD000003480068012149020843014948
:10568000086070470070004003480068102188439C
:1056900001490860704700000070004010B50246E4
:1056A00000200E4B186880088000034613431846FC
:1056B0000A4B18600A4B1B6904242343084C2361DE
:1056C000012901D130BF02E040BF20BF20BF044B01
:1056D0001B690424A343024C236110BD00700040E9
:1056E00000ED00E070B5044600250026202120686A
:1056F0000840202804D0890120680840884277D1DA
:105700009148006803210905084003221205A16998
:105710001140884207D18C48006811460840E16971
:10572000114088420ED003210904A0690840884234
:1057300008D185480068012149040840002801D0AB
:10574000012070BD8048806B0121090708437E4914
:1057500088637E480068891508437C490860FFF724
:1057600033FF054606E0FFF72FFF401B642801D9F1
:105770000320E6E775480068FF2101310840002852
:10578000F1D0714840300069032109040840032228
:105790001204A1691140884208D16B484030006969
:1057A00011460840E169114088425CD066484030AB
:1057B00000690321090488430646634840300069B4
:1057C0000121C90408436049403108610846006965
:1057D0000121C90488435C494031086108460661DB
:1057E00040153040002815D0FFF7EEFE054608E0D2
:1057F00039E0FFF7E9FE401B5549884201D90320F3
:105800009FE7514840300069012149020840400AA1
:105810000028EED000BF03210904A0690840884297
:105820000BD1494800680901884303221205A16988
:10583000114008434449086006E0434800680321DA
:1058400009058843404908603F484030006903210A
:105850000904884303221204A169114008433A490C
:105860004031086100BF2078C007C00F002809D070
:1058700035484030C068800880006168084332497C
:105880004031C860022120680840022809D12E4812
:105890004030C0680C218843A16808432A49403140
:1058A000C86004212068084004280AD126484030F6
:1058B000C068032189028843E168084322494031D6
:1058C000C86008212068084008280AD11E484030D6
:1058D000C068032109038843216908431A494031FC
:1058E000C860FF2101312068084088420AD116486B
:1058F0004030C068032109048843616908431249A4
:105900004031C860402120680840402809D10E4835
:105910004030C06809058843216A08430A4940317C
:10592000C86080212068084080280AD1064840309D
:10593000C068032189048843616A084302494031F1
:10594000C8600020FDE6000000100240007000402A
:105950008813000070B504460D460026764800689E
:10596000C007C00FA8420ED273480068400840002C
:1059700028437149086008460068C007C00FA84264
:1059800001D0012070BD022120680840022807D103
:105990006A48C068F0218843A16808436749C86025
:1059A0002078C007C00F00284CD06068022809D1B9
:1059B00062480068012149040840400C002824D1B5
:1059C0000120DFE76068002809D15C4800680121F8
:1059D00049020840400A002817D10120D2E7606838
:1059E000032809D155480068012149060840400EA6
:1059F00000280AD10120C5E750480068042108406A
:105A00008008002801D10120BCE74C48C06880080C
:105A10008000616808434949C860FFF7D5FD064624
:105A2000606802280FD107E0FFF7CEFD801B4449D4
:105A3000884201D90320A5E74048C0680C210840EE
:105A40000828F1D134E0606803280FD107E0FFF7A0
:105A5000BBFD801B3A49884201D9032092E73748B1
:105A6000C0680C2108400C28F1D121E060680028B2
:105A70000FD107E0FFF7A8FD801B3149884201D90B
:105A800003207FE72D48C0680C2108400028F1D191
:105A90000EE007E0FFF798FD801B2949884201D9F5
:105AA00003206FE72548C0680C2108400428F1D185
:105AB00021480068C007C00FA8420ED31E480068E6
:105AC0004008400028431C49086008460068C00799
:105AD000C00FA84201D0012054E7042120680840EB
